:020000040800F2
:1000000000000824712100081D2000082520000898
:100010002D200008352000083D20000800000000C9
:100020000000000000000000000000004520000863
:100030005320000800000000612000086F20000825
:10004000C5210008C5210008C5210008C5210008F8
:10005000C5210008C5210008C5210008C5210008E8
:10006000C5210008C5210008C52100087D20000821
:1000700091200008A5200008C5210008C52100081E
:10008000C5210008C5210008C5210008C5210008B8
:10009000C5210008C5210008C5210008C5210008A8
:1000A000C5210008C5210008C5210008C521000898
:1000B000B9200008C5210008C5210008C521000895
:1000C000C5210008C5210008C5210008C521000878
:1000D000C5210008CD200008E1200008C521000846
:1000E000F5200008C521000800000000C521000817
:1000F000C5210008C5210008C5210008C521000848
:10010000C5210008C5210008C5210008C521000837
:10011000C5210008C5210008C5210008C521000827
:10012000C5210008C5210008C5210008C521000817
:10013000C5210008C5210008C5210008C521000807
:10014000C5210008C52100080000000000000000D3
:10015000C5210008C5210008C5210008C5210008E7
:10016000C5210008C5210008C5210008C5210008D7
:10017000C5210008C5210008C5210008C5210008C7
:10018000C5210008C5210008C5210008C5210008B7
:10019000C5210008C5210008C5210008C5210008A7
:1001A000C5210008C5210008C5210008C521000897
:1001B000C5210008C5210008C5210008C521000887
:1001C000C5210008C5210008C5210008C521000877
:1001D000C5210008C5210008C5210008C521000867
:1001E000C5210008C5210008C5210008C521000857
:1001F000C5210008C5210008C5210008C521000847
:10020000C5210008C5210008C5210008C521000836
:10021000C5210008C5210008C5210008C521000826
:10022000C5210008C5210008C52100080000000004
:10023000C5210008C5210008C5210008C521000806
:10024000C5210008C5210008C5210008C5210008F6
:10025000C5210008C5210008C5210008C5210008E6
:10026000C5210008C5210008C5210008C5210008D6
:10027000C5210008C5210008C5210008C5210008C6
:10028000C5210008C5210008C521000800000000A4
:08029000C5210008C52100088A
:1002A00010B5054C237833B9044B13B10448AFF3B0
:1002B00000800123237010BD800000240000000096
:1002C000A4BE000808B5034B1BB103490348AFF3B4
:1002D000008008BD0000000084000024A4BE0008C7
:1002E00001F0FF01102A2BDB10F0070F08D010F8E7
:1002F000013B013A8B422DD010F0070F42B3F6D1EB
:10030000F0B441EA012141EA014122F007047FF003
:1003100000070023F0E80256083C85EA010586EA5A
:10032000010685FA47F5A3FA87F586FA47F6A5FA96
:1003300087F68EB9EED1F0BC01F0FF0102F00702A2
:1003400032B110F8013B013A83EA010313B1F8D14D
:100350000020704701387047002D06BF354603382E
:10036000073815F0010F07D1013015F4807F02BF67
:10037000013015F4C03F0130F0BC0138704700BFB8
:1003800053B94AB9002908BF00281CBF4FF0FF31FC
:100390004FF0FF3000F088B9ADF1080C6DE904CEE4
:1003A00000F006F8DDF804E0DDE9022304B0704750
:1003B0002DE9F047089D0F4604468C46002B48D196
:1003C0008A42164661D9B2FA82F34BB1C3F12002D8
:1003D00001FA03FC20FA02F29E4042EA0C0C9C4017
:1003E0004FEA164EB7B2BCFBFEF1220C0EFB11CC4D
:1003F00042EA0C4201FB07F0904209D9B21801F120
:10040000FF3C80F0EE80904240F2EB8002393244B3
:10041000121AA4B2B2FBFEF00EFB102244EA024410
:1004200000FB07F7A74209D9341900F1FF3280F029
:10043000DA80A74240F2D7803444023840EA0140D3
:10044000E41B00211DB1DC400023C5E90043BDE8E9
:10045000F0878B4206D90DB1C5E90001002108469D
:10046000BDE8F087B3FA83F1002948D1BB4202D33B
:10047000824200F20781841A67EB0302012094464E
:10048000002DE4D0C5E9004CE1E7002A00F092809D
:10049000B2FA82F3002B40F0A8808A1A4FEA164E77
:1004A0001FFA86FC0121200CB2FBFEF70EFB17227F
:1004B00040EA02420CFB07F0904207D9B21807F15C
:1004C000FF3802D2904200F2E2804746121AA4B2EC
:1004D000B2FBFEF00EFB102244EA02440CFB00FCCF
:1004E000A44507D9341900F1FF3202D2A44500F225
:1004F000CB801046A4EB0C0440EA0740A2E7C1F110
:1005000020068B4022FA06FC4CEA030C07FA01F4A1
:1005100020FA06F3F7404FEA1C49234300FA01F89A
:100520001FFA8CFEB7FBF9F01C0C09FB107744EAAC
:10053000074400FB0EF7A74202FA01F20AD91CEBAE
:10054000040400F1FF3A80F09B80A74240F29880BB
:1005500002386444E41B9FB2B4FBF9F309FB134473
:1005600047EA044403FB0EFEA64509D91CEB04042C
:1005700003F1FF3780F08280A6457FD9023B6444B7
:1005800043EA0040A4EB0E04A0FB02E7BC42734622
:10059000B94663D360D05DB1B8EB030264EB0904E4
:1005A00004FA06F622FA01F31E43CC40C5E90064C2
:1005B00000214CE76208480842EAC1710B0C43EA8B
:1005C00000438AB242EA0342B3FBF6F1E407B446C1
:1005D0003746B6461F23B0FBF6F0D21B41EA004176
:1005E00061E7614614E7104628E7C3F1200120FACD
:1005F00001F29E4027FA01F19F403A434FEA164E1E
:100600001FFA86FCB1FBFEF70EFB1710110C41EA36
:10061000004107FB0CF8884504FA03F43AD9711835
:1006200007F1FF3001D288451FD8A1EB0801B1FBCB
:10063000FEF808FB0CF70EFB181192B242EA0142D9
:10064000BA422FD2B21808F1FF31C6D2BA42C4D290
:10065000A8F102013244C0E7F0459CD2BEEB020390
:1006600067EB0C070138B94695E7A6EB080841444B
:10067000B81EB1FBFEF808FB0CF7DCE73B467FE752
:10068000504667E70846FBE63444023832E7023F4B
:1006900032441BE7A1EB08013846B1FBFEF808FB2A
:1006A0000CF7C8E7414698E7704700BF80B400AF39
:1006B000494BD3F88830484A43F47003C2F8883075
:1006C000454B1B69444A43F010031361434B1B68BD
:1006D00003F00F03062B07D8404B1B6823F00F03D2
:1006E0003E4A43F0070313603D4B1B683C4A43F00E
:1006F000010313603A4B00221A61394B1A683849DA
:10070000384B13400B60354B1B6803F00803002B7C
:1007100007D0324B1B6823F00F03304A43F0070326
:1007200013602F4B00229A612D4B0022DA612C4B73
:1007300000221A622A4B2C4A9A62294B2B4ADA620F
:10074000274B2B4A1A63264B00225A63244B284A14
:100750009A63234B0022DA63214B254A1A64204B0B
:1007600000225A641E4B1B681D4A23F48023136029
:100770001B4B00221A661F4B5B6A1E4A43F48043E0
:1007800053621D4B1A681D4B1340B3F1005F02D238
:100790001B4B01221A60124BD3F8D43003F4805360
:1007A000002B13D10E4BD3F8D4300D4A43F48053B1
:1007B000C2F8D430134B43F2D2021A60084BD3F87C
:1007C000D430074A23F48053C2F8D43000BFBD466A
:1007D0005DF8047B704700BF00ED00E00020005290
:1007E000004402587FEDF6EA000202020000FF0119
:1007F00080020101C00000580010005C0000FFFFF3
:100800000881005100400052044BDA6822F00202D5
:10081000DA605A689204FCD5704700BF004802585D
:1008200080B582B000AF4FF6FF737B6000BF934B83
:100830001B6803F40043002B04D07B685A1E7A60C7
:10084000002BF4DC7B68002B01DA01F005FA01F0E3
:1008500083FE00F049F9894BD3F8E030874A43F032
:100860000073C2F8E030854BD3F8E03003F000733A
:100870003B603B68002005F0AFF80021002005F048
:10088000C5F84FF6FF737B6000BF7C4B1B6803F419
:100890000043002B04D17B685A1E7A60002BF4DCE5
:1008A0007B68002B01DA01F0D7F900F095FA00F02F
:1008B00063FA00F0C9F900F013FA00F077F9704814
:1008C00000F05AFC4FF4006200216E480AF064FE0A
:1008D0004FF400626B496C480AF086FD6A4BD3F80E
:1008E00080301B68694A934268D0674BD3F88030E8
:1008F0001B68674A934261D0634BD3F880301B6812
:10090000644A93425AD0604BD3F880301B68624AE5
:10091000934253D05C4BD3F880301B685F4A9342BC
:100920004CD0594BD3F880301B685D4A934245D078
:10093000554BD3F880301B685A4A93423ED0524BF5
:10094000D3F880301B68584A934237D04E4BD3F8C7
:1009500080301B68554A934230D04B4BD3F88030DF
:100960001B68534A934229D0474BD3F880301B6809
:10097000504A934222D0444BD3F880301B684E4AF1
:1009800093421BD0404BD3F880301B684B4A9342B4
:1009900014D03D4BD3F880301B68494A93420DD0A8
:1009A000394BD3F880301B68464A934206D0364B09
:1009B000D3F880301B68444A93420CD1324BD3F8B1
:1009C00080301B681A68304BD3F880301B6822F0E7
:1009D00008021A600BE02C4BD3F880301B681A68B1
:1009E000294BD3F880301B6822F004021A60374884
:1009F00007F0E4FE002001F0E7FB012001F0E4FB3A
:100A0000022001F0E1FB0121002001F053FC304BFA
:100A10004FF4E1321A602E4B00225A602C4B002218
:100A20001A812B4B00225A81294B00229A81284996
:100A3000002001F0CFFC0346002B01D001F00CF99F
:100A4000244B1B78DBB2012B01D100F08DFA224B35
:100A50001B78DBB2012B01D100F070FC1F4B1B781F
:100A6000DBB2012B01D100F0C5FC1D4B1B78DBB2C2
:100A7000012BE5D11B4800F04BFDE1E70044025893
:100A80009C000024C0100024B8190024100002406B
:100A9000280002404000024058000240700002401E
:100AA00088000240A0000240B8000240100402404A
:100AB00028040240400402405804024070040240EE
:100AC00088040240A0040240B80402406C190024CB
:100AD0005C190024AB100024A8100024A9100024E5
:100AE000AA100024C018002480B59CB000AF07F104
:100AF00024034C22002118460AF04EFD3B1D202203
:100B0000002118460AF048FD042004F093FF00BFBE
:100B1000254B9B6903F40053B3F5005FF8D1022322
:100B20007B6201233B6340237B630223BB6400237E
:100B3000FB6404233B651C237B650223BB65052303
:100B4000FB6502233B660C237B660023BB664FF4E8
:100B50008063FB6607F12403184604F0C5FF0346D3
:100B6000002B01D001F078F83F237B600323BB60AA
:100B70000023FB6000233B6140237B614023BB617A
:100B80004FF48063FB6140233B623B1D002118460C
:100B900005F004FC0346002B01D001F05DF800BF16
:100BA0007037BD4680BD00BF0048025880B588B090
:100BB00000AF07F1100300221A605A609A60DA60F1
:100BC0003B1D00221A605A609A601E4B4FF0804213
:100BD0001A601C4B45F2E3725A601A4B00229A606D
:100BE000184BA922DA60174B00221A61154B00221C
:100BF0009A61144807F08AFD0346002B01D001F0EA
:100C00002BF84FF480533B6107F1100319460D4850
:100C100007F054FF0346002B01D001F01DF800231C
:100C20007B600023FB603B1D1946064808F0DAF99B
:100C30000346002B01D001F00FF800BF2037BD465E
:100C400080BD00BF6C19002480B500AF224B234A41
:100C50001A60214B4FF4E1325A601F4B00229A6018
:100C60001D4B0022DA601C4B00221A611A4B0C2229
:100C70005A61194B00229A61174B0022DA61164B18
:100C800000221A62144B00225A62134B00229A620D
:100C9000114808F053FA0346002B01D000F0DCFFA6
:100CA00000210D480AF024FB0346002B01D000F080
:100CB000D3FF002108480AF059FB0346002B01D05E
:100CC00000F0CAFF04480AF0DAFA0346002B01D00C
:100CD00000F0C2FF00BF80BDB81900240010014021
:100CE00080B500AF224B234A1A60214B4FF4E1320A
:100CF0005A601F4B00229A601D4B0022DA601C4B89
:100D000000221A611A4B0C225A61194B00229A6177
:100D1000174B0022DA61164B00221A62144B002294
:100D20005A62134B00229A62114808F007FA0346F0
:100D3000002B01D000F090FF00210D480AF0D8FAF6
:100D40000346002B01D000F087FF002108480AF07D
:100D50000DFB0346002B01D000F07EFF04480AF093
:100D60008EFA0346002B01D000F076FF00BF80BD55
:100D70004C1A00240044004080B582B000AF154BEF
:100D8000D3F8D830134A43F00103C2F8D830114BDE
:100D9000D3F8D83003F001037B607B680022002188
:100DA0000B2001F052FD0B2001F069FD0022002113
:100DB0000C2001F04AFD0C2001F061FD0022002111
:100DC0000D2001F042FD0D2001F059FD00BF083754
:100DD000BD4680BD0044025880B58AB000AF07F11F
:100DE000140300221A605A609A60DA601A61514B4B
:100DF000D3F8E0304F4A43F00403C2F8E0304D4BE3
:100E0000D3F8E03003F004033B613B69494BD3F86E
:100E1000E030484A43F00103C2F8E030454BD3F8D4
:100E2000E03003F00103FB60FB68424BD3F8E03095
:100E3000404A43F00203C2F8E0303E4BD3F8E030C2
:100E400003F00203BB60BB683A4BD3F8E030394A89
:100E500043F00803C2F8E030364BD3F8E03003F03B
:100E600008037B607B68334BD3F8E030314A43F0B2
:100E70004003C2F8E0302F4BD3F8E03003F04003DA
:100E80003B603B6832237B610223BB610023FB6133
:100E900002233B620B237B6207F1140319462648A9
:100EA00004F0C6FB86237B610223BB610023FB6148
:100EB00002233B620B237B6207F1140319461F4890
:100EC00004F0B6FB4FF400537B610223BB610023A7
:100ED000FB6102233B620B237B6207F1140319467B
:100EE000174804F0A5FB4FF4C8537B610223BB6194
:100EF0000023FB6100233B620A237B6207F114039A
:100F000019460E4804F094FB4FF420537B610223F2
:100F1000BB610023FB6102233B620B237B6207F171
:100F200014031946074804F083FB00BF2837BD4669
:100F300080BD00BF0044025800080258000002585B
:100F4000000402580018025880B483B000AF7860E3
:100F5000044B01221A7000BF0C37BD465DF8047BBC
:100F6000704700BFAB10002480B500AF134B0022C8
:100F70001A70134B5B78012B17D1114B00225A705A
:100F80000F4BDB78012B07D10D4B0022DA7000F0FC
:100F900073F80B4B00229A70094B9B78012B04D1FC
:100FA000074B00229A7000F00DF8054B1B78012BBF
:100FB00002D1034B00221A7000BF80BDAB10002489
:100FC0005819002480B598B002AF234B9B7819467E
:100FD000214B1B881A46204B9B88381D0193009299
:100FE0000B461E4A50210AF0A1FA78657B6D9AB231
:100FF000391D32231A4808F0F1F81A4B1B78002BE0
:1010000006D0322314221849154808F0E7F820E0EA
:10101000144B5B78002B06D032231A221349104858
:1010200008F0DCF815E00F4B9B78002B06D032233C
:1010300017220F490A4808F0D1F80AE0094B5B7AF9
:10104000002B06D0322319220A49054808F0C6F8B9
:1010500000BF5837BD4680BD0019002408BF0008F6
:101060004C1A00244C1900242CBF000840BF000873
:101070005CBF000874BF000880B500AF264BDB786A
:10108000002B06D0322316222449254808F0A6F862
:1010900041E0214B1B79002B06D032231522214938
:1010A0001F4808F09BF836E01B4B5B79002B06D0FD
:1010B000322311221C491A4808F090F82BE0164BF5
:1010C0009B79002B06D0322311221849144808F0CE
:1010D00085F820E0104BDB79002B06D0322312225A
:1010E00013490F4808F07AF815E00B4B1B7A002BD8
:1010F00006D032230F220F49094808F06FF80AE0A2
:10110000054B9B7A002B06D0322315220A4904484E
:1011100008F064F800BF80BD4C19002490BF00089F
:101120004C1A0024A8BF0008C0BF0008D4BF0008A4
:10113000E8BF0008FCBF00080CC0000880B483B002
:1011400000AF78600B467B807B681B68074A934240
:1011500005D1074B01221A70064A7B88138000BF15
:101160000C37BD465DF8047B704700BF001001409E
:10117000A8100024A610002480B483B000AF7860CB
:101180007B6803F5805300221A807B6803F5805347
:1011900000225A8000BF0C37BD465DF8047B7047C3
:1011A00080B483B000AF78607B6803F580531A8801
:1011B0007B6803F580535B889A420AD37B6803F50A
:1011C00080531A887B6803F580535B88D31A9BB2DF
:1011D0000CE07B6803F580531A887B6803F5805325
:1011E0005B88D31A9BB203F580539BB218460C3729
:1011F000BD465DF8047B704780B487B000AFF860EF
:10120000B9601346FB800023FB8228E0FB6803F5EE
:1012100080531B8801335A42C3F30B03C2F30B0202
:1012200058BF5342BB82FB6803F580535B88BA8A80
:101230009A4210D0FB8ABA681344FA6802F58052C9
:1012400012881978FB689954FB6803F580531A4695
:10125000BB8A138000E000BFFB8A0133FB82FA8A5D
:10126000FB889A42D2D300BF00BF1C37BD465DF851
:10127000047B704780B487B000AFF860B960114656
:101280001A460B46FB801346BB800023FB820EE010
:10129000FA88FB8A13449BB2C3F30B02FB8AB9683A
:1012A0000B44F9688A5C1A70FB8A0133FB82FA8A64
:1012B000BB889A42ECD3FA88BB8813449BB2C3F331
:1012C0000B039AB2FB6803F580535A8000BF1C37AA
:1012D000BD465DF8047B704780B485B000AF786090
:1012E0000023BB817B685B78FB72FB7A013B7A68E9
:1012F00013441B78BB720023FB730AE0FB7B7A6804
:1013000013441B781A46BB891344BB81FB7B013312
:10131000FB73FA7BFB7A013B9A42EFDBBB897B7262
:101320007A7ABB7A9A420CBF01230023DBB21846BB
:101330001437BD465DF8047B7047000080B582B06D
:1013400000AF264B00221A70254B1B889AB2254B02
:101350001B889A4211D9224B1B889AB2214B1B88B9
:10136000D31A7B801F4B1B881A461F4B13447A8865
:1013700019461E48FFF740FF1AE01A4B1B88C3F5B9
:101380000063FB80174B1B881A46174B1344FA88DF
:1013900019461648FFF730FF114B1B88BB80BB88EE
:1013A000002B05D0BB881A460F491048FFF724FFD1
:1013B0000B4B1B889BB2B3F5006F03D1094B002286
:1013C0001A8004E0064B1B889AB2064B1A80084B21
:1013D00001221A7000BF0837BD4680BDA810002446
:1013E000A6100024A4100024C01000249C00002497
:1013F000A910002480B584B000AF00237B730023C4
:101400007B8100233B813E4B00221A703D48FFF751
:10141000C7FE0346FB8135E03A4B03F580535B88FA
:101420001A46384B9B5CFA2B18D1364B03F5805388
:101430005B883B81334B03F580535B8801335A4211
:10144000C3F30B03C2F30B0258BF5342FB80FB886C
:101450002C4AD35C7B8101237B7316E0294B03F577
:1014600080535B8801335A42C3F30B03C2F30B0270
:1014700058BF53429AB2234B03F580535A80FB89DD
:10148000013BFB81FB89092BC6D87B7B012B33D128
:1014900000237B737B89092B02D97B891C2B11D9F3
:1014A000184B03F580535B8801335A42C3F30B0397
:1014B000C2F30B0258BF53429AB2124B03F580534A
:1014C0005A8019E0FA897B899A4214D37B893A8938
:1014D0000D490C48FFF7CEFE094B01221A700A484D
:1014E000FFF7FAFE03467B717B79002B04D0074B94
:1014F00001221A7000E000BF1037BD4680BD00BF5A
:10150000A91000249C000024C0180024AA10002464
:1015100080B582B000AF7860134B00221A707B68F0
:101520009A78124B1A707B68DA78104B5A707B6885
:101530001A790E4B9A700D4B1B78032B0CD0032B92
:101540000DDC012B02D0022B03D008E000F010F8D4
:1015500006E000F0CDFA03E000F088F900E000BFFB
:1015600000BF0837BD4680BDAA100024A01000248B
:1015700080B500AF9D4B5B78032B00F06981042B95
:1015800040F06B81994B9B78813B2F2B00F25E8161
:1015900001A252F823F000BF591600084D180008A8
:1015A0004D1800084D1800084D1800084D18000887
:1015B0004D1800084D1800084D1800084D18000877
:1015C0004D1800084D1800084D1800084D18000867
:1015D0004D18000865160008F7160008C717000820
:1015E000D91700082D1700084D1800080518000825
:1015F00043180008371700084D1800084D18000858
:101600004D1800084D1800084D1800084D18000826
:101610004D1800084D1800084D1800084D18000816
:101620004D1800084D1800084D1800084D18000806
:101630004D1800084D1800084D1800084D180008F6
:101640004D1800084D1800084D1800084D180008E6
:101650004D180008891700080A226549654807F0F7
:1016600057FEF4E0644B5A7A644B1A70624BDB7A93
:101670001BB21B021BB203F470631AB25E4B9B7A5F
:101680001BB213431BB29AB25C4B5A805A4B5B7B22
:101690001BB21B011AB2584B1B7B1B09DBB21BB2DE
:1016A00003F00F031BB213431BB29AB2534B9A8041
:1016B000514B9B7B1BB21B021BB203F470631AB22B
:1016C0004D4B5B7B1BB213431BB29AB24B4BDA8080
:1016D000494BDB7B1BB21B011AB2474B9B7B1B099F
:1016E000DBB21BB203F00F031BB213431BB29AB25F
:1016F000424B1A81ABE0404B9B7A1BB21B021AB2E1
:101700003D4B5B7A1BB213431BB29AB23B4B5A81DF
:10171000394B1B7B1BB21B021AB2374BDB7A1BB255
:1017200013431BB29AB2354B9A8190E0324B5A7AEE
:10173000324B9A748BE0304B5A7A304B5A762E4BA0
:10174000DB7A1BB21B021AB22B4B9B7A1BB21343E0
:101750001AB22A4B5A83284B5B7B1BB21B021AB26C
:10176000254B1B7B1BB213431AB2244B9A83224B8B
:10177000DB7B1BB21B021AB21F4B9B7B1BB21343BA
:101780001AB21E4BDA8362E01B4B9B7A1BB21B0220
:101790001AB2194B5B7A1BB213431BB29AB2184BA5
:1017A0005A80154B1B7B1BB21B021AB2124BDB7A01
:1017B0001BB213431BB29AB2114B9A800E4B5A7B49
:1017C0000F4B1A7043E00C4B5A7A0C4B9A730A4B2E
:1017D000DA7A0A4BDA733AE0074B5A7A074B1A74F3
:1017E000054B9A7A054B5A7431E000BFA0100024D3
:1017F000CCBE0008B8190024C01800242419002405
:1018000044190024164B5A7A164BDA74144BDB7ABF
:101810001BB21B021AB2124B9B7A1BB213431BB2B0
:101820009AB2104B9A820E4B5B7B1BB21B021AB210
:101830000B4B1B7B1BB213431BB29AB2094BDA82D0
:1018400005E0074B5A7A074B1A7600E000BF04E028
:10185000054B9B78802B00BF00BF00BF80BD00BF41
:10186000C018002424190024A010002480B500AF63
:10187000984B5B78032B00F01181042B40F02781FB
:10188000944B9B78852B1DD0852B00F30581812BF4
:1018900002D0842B06D0FFE00A228F498F4807F040
:1018A00037FDFAE08E4B5A7A8E4B5A728C4B5A7A2D
:1018B0008C4B9A728A4B5A7A8A4BDA728A4B012283
:1018C0001A70EAE0864B9B7A1BB21B021AB2844B59
:1018D0005B7A1BB213431BB29AB2824B1A80804BC5
:1018E000DA7A804B9A707E4B5B7B1BB21B021AB27A
:1018F0007B4B1B7B1BB213431BB29AB2794B9A8072
:10190000774B9A7B774B9A71754BDA7B754BDA7113
:101910000C220021754809F03FFE734B01225A70DA
:10192000704B9B79002B07D16E4BDB79002B03D1D9
:101930006D4B01229A70B0E06A4B9B7903F0010372
:10194000002B06D0694B01221A70674B01229A7056
:1019500002E0664B00221A70624B9B7903F002038F
:10196000002B06D0614B01225A705F4B01229A7006
:1019700002E05E4B00225A705A4B9B7903F004033D
:10198000002B06D0594B01229A70574B01229A70B6
:1019900002E0564B00229A70524B9B7903F00803E9
:1019A000002B06D0514B0122DA704F4B0122DA7026
:1019B00002E04E4B0022DA704A4B9B7903F0100391
:1019C000002B06D0494B01221A71474B0122DA70D5
:1019D00002E0464B00221A71424B9B7903F0200330
:1019E000002B06D0414B01225A713F4B0122DA7085
:1019F00002E03E4B00225A713A4B9B7903F04003C0
:101A0000002B06D0394B01229A71374B0122DA7034
:101A100002E0364B00229A71324B9B795BB2002B6D
:101A200006DA324B0122DA712F4B0122DA7002E022
:101A30002E4B0022DA712B4BDB7903F00103002BD4
:101A400006D02A4B01221A72274B0122DA7002E0DB
:101A5000264B00221A72234BDB7903F00203002B82
:101A600006D0224B01225A721F4B01229A7002E0CB
:101A70001E4B00225A721B4BDB7903F00403002B30
:101A800006D01A4B01229A72174B0122DA7004E039
:101A9000164B00229A7200E000BF18E00D4B9B78B5
:101AA000802B02D0832B0ED010E00D4B5A7A0D4BB9
:101AB0001A720C4B1B7A802B07D00A220649074862
:101AC00007F026FC01E000BF00E000BF00BF00BF40
:101AD00080BD00BFA0100024CCBE0008B8190024AF
:101AE000C018002400190024581900244C1900249F
:101AF00080B500AF504B5B78032B3FD0042B40F0F8
:101B000099804D4B9B78862B22D0862B32DC812B03
:101B100002D0842B06D02DE00A224849484807F01D
:101B2000F7FB2AE0474B9B7A1BB21B021AB2454BCC
:101B30005B7A1BB213431BB29AB2434B9A81414B5F
:101B4000DA7A414B9A733F4B1A7B3F4BDA7314E0BE
:101B50003C4B5A7A3C4B5A743A4B9A7A3A4B9A74A9
:101B6000394B9B7C002B07D10A223849344807F0B7
:101B7000CFFB01E000BF5DE000BF5BE02E4B9B7838
:101B8000802B02D0832B0ED053E02E4B5A7A304B51
:101B90001A722F4B1B7A082B4AD00A222D4928484B
:101BA00007F0B6FB44E0274B9B7A1BB21B021AB22C
:101BB000244B5B7A1BB213431BB29AB2224B1A809E
:101BC000204B1B7B1BB21B021AB21E4BDB7A1BB2D3
:101BD00013431BB29AB21C4B9A801A4B9B7B1BB2CD
:101BE0001B021AB2174B5B7B1BB213431BB29AB298
:101BF000154B5A80134B1B7C1BB21B021AB2114BA4
:101C0000DB7B1BB213431BB29AB20F4BDA800D4B36
:101C10005A7C0D4B1A720B4B9A7C0B4B5A72094B28
:101C2000DA7C094B9A72074B1A7D074BDA7200E097
:101C300000BF00BF00BF80BDA0100024E0BE0008B0
:101C4000B8190024C018002410190024F4BE00089C
:101C500000190024CCBE000880B400AF72B600BFEB
:101C600000BFFDE780B483B000AF0A4BD3F8F43077
:101C7000084A43F00203C2F8F430064BD3F8F430BC
:101C800003F002037B607B6800BF0C37BD465DF844
:101C9000047B70470044025880B584B000AF786080
:101CA0007B681B68B3F1804F16D10D4BD3F8E83039
:101CB0000B4A43F00103C2F8E830094BD3F8E8308F
:101CC00003F00103FB60FB68002200211C2000F0F0
:101CD000BCFD1C2000F0D3FD00BF1037BD4680BD09
:101CE0000044025880B5BEB000AF786007F1E4034D
:101CF00000221A605A609A60DA601A6107F12003C4
:101D0000C0220021184609F047FC7B681B68B74ACF
:101D1000934240F0C1804FF001024FF00003C7E949
:101D200008230023C7F89C3007F12003184604F06D
:101D3000C1FE0346002B01D0FFF78EFFAC4BD3F85A
:101D4000F030AB4A43F01003C2F8F030A84BD3F8A0
:101D5000F03003F01003FB61FB69A54BD3F8E030D2
:101D6000A34A43F00203C2F8E030A14BD3F8E030BD
:101D700003F00203BB61BB694FF40043C7F8E430D2
:101D80000223C7F8E8300023C7F8EC300023C7F877
:101D9000F0300423C7F8F43007F1E40319469548FE
:101DA00003F046FC4023C7F8E4300223C7F8E830CC
:101DB0000023C7F8EC300023C7F8F0300723C7F83A
:101DC000F43007F1E40319468A4803F031FC8A4BEA
:101DD0008A4A1A60884B29225A60874B00229A60EF
:101DE000854B0022DA60844B4FF480621A61824B8B
:101DF00000225A61804B00229A617F4B4FF480721F
:101E0000DA617D4B00221A627B4B00225A627A48CB
:101E100000F062FD0346002B01D0FFF71DFF7B6839
:101E2000754AC3F88020744A7B689363744B754A83
:101E30001A60734B2A225A60714B40229A60704B91
:101E40000022DA606E4B4FF480621A616C4B002204
:101E50005A616B4B00229A61694B0022DA61684B30
:101E600000221A62664B00225A62654800F034FD77
:101E70000346002B01D0FFF7EFFE7B68604ADA676C
:101E80005F4A7B68936300220021252000F0DDFC7F
:101E9000252000F0F4FCA4E07B681B685A4A9342BA
:101EA00040F09F804FF002024FF00003C7E9082383
:101EB0000023C7F8983007F12003184604F0FAFD14
:101EC0000346002B01D0FFF7C7FE494BD3F8E8309B
:101ED000474A43F40033C2F8E830454BD3F8E830C2
:101EE00003F400337B617B69414BD3F8E030404A17
:101EF00043F00103C2F8E0303D4BD3F8E03003F08B
:101F000001033B613B693A4BD3F8E030384A43F078
:101F10000803C2F8E030364BD3F8E03003F0080392
:101F2000FB60FB680823C7F8E4300223C7F8E830F9
:101F30000023C7F8EC300023C7F8F0300723C7F8B8
:101F4000F43007F1E4031946304803F071FB202315
:101F5000C7F8E4300223C7F8E8300023C7F8EC30B4
:101F60000023C7F8F0300723C7F8F43007F1E40383
:101F70001946274803F05CFB264B274A1A60254B7D
:101F80002C225A60234B40229A60224B0022DA60B6
:101F9000204B4FF480621A611E4B00225A611D4B88
:101FA00000229A611B4B0022DA611A4B00221A624E
:101FB000184B00225A62174800F08EFC0346002B93
:101FC00001D0FFF749FE7B68124ADA67114A7B6845
:101FD000936300220021262000F037FC262000F029
:101FE0004EFC00BFF837BD4680BD00BF0010014069
:101FF0000044025800040258E01A00241000024075
:10200000581B0024280002400044004000000258F1
:10201000000C0258D01B00244000024080B400AFE6
:1020200000BFFDE780B400AF00BFFDE780B400AFA4
:1020300000BFFDE780B400AF00BFFDE780B400AF94
:1020400000BFFDE780B400AF00BFBD465DF8047B74
:10205000704780B400AF00BFBD465DF8047B704799
:1020600080B400AF00BFBD465DF8047B704780B50B
:1020700000AF00F0E3FA00BF80BD000080B500AF04
:10208000024801F053FF00BF80BD00BFE01A0024EA
:1020900080B500AF024801F049FF00BF80BD00BF1E
:1020A000581B002480B500AF024801F03FFF00BF7D
:1020B00080BD00BFD01B002480B500AF024806F0F1
:1020C000F5FB00BF80BD00BF6C19002480B500AFD8
:1020D000024807F09DF900BF80BD00BFB819002479
:1020E00080B500AF024807F093F900BF80BD00BF84
:1020F0004C1A002480B500AF002000F04DF900BF5D
:1021000080BD000080B586B000AF7860144A154BE2
:10211000D31A7B617B693B61134B1B68002B02D197
:10212000114B124A1A60104B1A687B6813443A69C3
:102130009A4207D209F038FA03460C221A604FF08F
:10214000FF3309E0084B1B68FB60074B1A687B688C
:102150001344054A1360FB6818461837BD4680BD16
:102160000000082400040000481C0024381E00243D
:10217000DFF838D0FEF748FBFEF798FA0C480D4917
:102180000D4A002302E0D458C4500433C4188C42D2
:10219000F9D30A4A0A4C002301E013600432A24238
:1021A000FBD309F007FAFEF73BFBFEE7000008242B
:1021B000000000247C000024A4C00008800000244B
:1021C000341E0024FEE7000080B58CB000AF03464B
:1021D000FB710023FB62FB79002B09D0FB79012BFB
:1021E00006D0FB79022B03D06FF00103FB6255E0B0
:1021F000FB79002B0FD12C4BD3F8E0302A4A43F067
:102200000203C2F8E030284BD3F8E03003F00203B9
:102210007B617B6921E0FB79012B0FD1224BD3F845
:10222000E030214A43F01003C2F8E0301E4BD3F8EF
:10223000E03003F010033B613B690EE01A4BD3F82A
:10224000E030194A43F00203C2F8E030164BD3F8ED
:10225000E03003F00203FB60FB68FB79134A32F8BD
:102260001330BB610123FB6100233B6203237B62CC
:10227000FB790F4A52F8233007F11802114618462D
:1022800003F0D6F9FB790A4A52F82300FB79074A92
:1022900032F813300022194603F084FBFB6A18461B
:1022A0003037BD4680BD00BF0044025824C000083E
:1022B0000C00002480B588B000AF03460A46FB71CD
:1022C0001346BB712E4BD3F8E0302D4A43F0040384
:1022D000C2F8E0302A4BD3F8E03003F00403BB60CF
:1022E000BB684FF40053FB6002237B610223BB6198
:1022F000BB79002B0CD100233B61FB79214A52F8BA
:10230000233007F10C021146184603F091F931E031
:102310004FF488133B61FB791A4A52F8233007F1D6
:102320000C021146184603F083F9FB79DB00164ACC
:102330001A44FB79154951F823301946104603F029
:1023400026F9FB79DB00104A9818FB79104A52F8FD
:1023500023301A46002103F0FBF82820FB790D4AB0
:1023600052F823300022194600F06FFA282318464D
:1023700000F085FA002318462037BD4680BD00BF17
:1023800000440258180000244C1C00242CC00008F3
:102390001C0000242000002480B582B000AF03465A
:1023A000FB71FB79DB00044A1344184603F004F97F
:1023B00000BF0837BD4680BD4C1C002480B483B0EC
:1023C00000AF0346FB7100BF0C37BD465DF8047BD0
:1023D0007047000080B584B000AF03463960FB71E0
:1023E0000023FB60FB79002B03D06FF00103FB603F
:1023F00018E0FB79942202FB03F30D4A13441846BC
:1024000000F052F8FB79942202FB03F3084A1344CC
:102410003968184600F00EF80346002B02D06FF022
:102420000303FB60FB6818461037BD4680BD00BF44
:10243000541C002480B582B000AF78603960154B21
:102440001A687B681A603B681A687B685A607B6808
:102450000C225A613B685B891A467B681A613B68AB
:102460005A687B689A603B681B891A467B68DA6009
:102470003B689B891A467B689A617B684FF40042EF
:10248000DA61786806F05AFE034618460837BD46FA
:1024900080BD00BF0800002480B500AF0020FFF71A
:1024A0008DFF00BF80BD000080B58AB000AF7860AE
:1024B000274BD3F8E030264A43F00803C2F8E03057
:1024C000234BD3F8E03003F008033B613B69204B1A
:1024D000D3F8E0301E4A43F00803C2F8E0301C4B4A
:1024E000D3F8E03003F00803FB60FB68184BD3F827
:1024F000E830174A43F48023C2F8E830144BD3F88D
:10250000E83003F48023BB60BB684FF480737B61C9
:102510000223BB6102233B620123FB6107237B6231
:1025200007F1140319460B4803F082F84FF40073C7
:102530007B610223BB6107237B6207F11403194609
:10254000044803F075F800BF2837BD4680BD00BFC2
:1025500000440258000C025880B582B000AF03203E
:1025600000F068F904F0D0F80246154B9B691B0A8D
:1025700003F00F031349CB5C03F01F0322FA03F3AC
:102580007B600F4B9B6903F00F030E4AD35C03F093
:102590001F037A6822FA03F30B4A13600B4A7B6825
:1025A0001360002000F014F80346002B01D0012333
:1025B00002E0FFF757FB002318460837BD4680BDF1
:1025C00000440258BCBE000804000024000000249F
:1025D00080B582B000AF7860154B1B78002B01D11D
:1025E000012321E0134B1A68114B1B7819464FF455
:1025F0007A73B3FBF1F3B2FBF3F3184600F04DF935
:102600000346002B01D001230EE07B680F2B0AD874
:10261000002279684FF0FF3000F017F9064A7B6816
:102620001360002300E0012318460837BD4680BD33
:1026300028000024000000242400002480B400AFFF
:10264000064B1B781A46064B1B681344044A13605A
:1026500000BFBD465DF8047B704700BF2800002422
:10266000E81C002480B400AF034B1B681846BD462D
:102670005DF8047B704700BFE81C002480B400AF05
:10268000034B1B681B0C1846BD465DF8047B704766
:102690000010005C80B485B000AF78607B6803F008
:1026A0000703FB600B4BDB68BB60BA684FF6FF03A8
:1026B0001340BB60FB681A02BB681A43064B134306
:1026C000BB60044ABB68D36000BF1437BD465DF8E9
:1026D000047B704700ED00E00000FA0580B400AF15
:1026E000044BDB681B0A03F007031846BD465DF880
:1026F000047B704700ED00E080B483B000AF034678
:10270000FB80B7F90630002B0BDBFB8803F01F02C0
:102710000749B7F906305B09012000FA02F241F8D7
:10272000232000BF0C37BD465DF8047B704700BF17
:1027300000E100E080B483B000AF03463960FB8065
:10274000B7F90630002B0ADB3B68DAB20C49B7F95F
:1027500006301201D2B20B4483F800230AE03B6832
:10276000DAB20849FB8803F00F03043B1201D2B22E
:102770000B441A7600BF0C37BD465DF8047B7047EA
:1027800000E100E000ED00E080B489B000AFF86047
:10279000B9607A60FB6803F00703FB61FB69C3F172
:1027A0000703042B28BF0423BB61FB690433062BFA
:1027B00002D9FB69033B00E000237B614FF0FF324D
:1027C000BB6902FA03F3DA43BB681A407B699A409B
:1027D0004FF0FF317B6901FA03F3D9437B680B406B
:1027E000134318462437BD465DF8047B704700004C
:1027F00080B582B000AF78607B68013BB3F1807F29
:1028000001D301230FE00A4A7B68013B53600F218B
:102810004FF0FF30FFF78EFF054B00229A60044B0C
:1028200007221A60002318460837BD4680BD00BF46
:1028300010E000E080B582B000AF78607868FFF704
:1028400029FF00BF0837BD4680BD80B586B000AF08
:102850000346B9607A60FB81FFF740FF78617A68D0
:10286000B9687869FFF790FF0246B7F90E30114654
:102870001846FFF75FFF00BF1837BD4680BD80B523
:1028800082B000AF0346FB80B7F906301846FFF769
:1028900033FF00BF0837BD4680BD80B582B000AFB2
:1028A00078607868FFF7A4FF034618460837BD46EE
:1028B00080BD000080B400AF064B1B6803F0F0033E
:1028C000702B01D1032300E001231846BD465DF8BB
:1028D000047B704700ED00E080B586B000AF786003
:1028E000FFF7C0FE38617B68002B01D1012316E39E
:1028F0007B681B68664A93424AD07B681B68654ABE
:10290000934245D07B681B68634A934240D07B6802
:102910001B68624A93423BD07B681B68604A9342C3
:1029200036D07B681B685F4A934231D07B681B6856
:102930005D4A93422CD07B681B685C4A934227D047
:102940007B681B685A4A934222D07B681B68594AAD
:1029500093421DD07B681B68574A934218D07B680E
:102960001B68564A934213D07B681B68544A9342B3
:102970000ED07B681B68534A934209D07B681B6862
:10298000514A934204D07B681B68504A934201D15C
:10299000012300E00023002B00F03B817B68022232
:1029A00083F835207B68002283F834207B681B681D
:1029B000374A93424AD07B681B68364A934245D0D7
:1029C0007B681B68344A934240D07B681B68334A5B
:1029D00093423BD07B681B68314A934236D07B6878
:1029E0001B68304A934231D07B681B682E4A934261
:1029F0002CD07B681B682D4A934227D07B681B68CC
:102A00002B4A934222D07B681B682A4A93421DD0EE
:102A10007B681B68284A934218D07B681B68274A4A
:102A2000934213D07B681B68254A93420ED07B6883
:102A30001B68244A934209D07B681B68224A934250
:102A400004D07B681B68214A934208D17B681B68CD
:102A50001A687B681B6822F001021A6007E07B6835
:102A60001B681A687B681B6822F001021A602FE05D
:102A7000FFF7F8FD02463B69D31A052B28D97B687E
:102A800020225A657B68032283F83520012346E221
:102A9000100002402800024040000240580002405E
:102AA0007000024088000240A0000240B8000240CE
:102AB000100402402804024040040240580402402E
:102AC0007004024088040240A0040240B80402409E
:102AD0007B681B681B6803F00103002BC8D17B686F
:102AE0001B681B687B617A69834B13407B617B6841
:102AF0009A687B68DB681A437B681B691A437B68AA
:102B00005B691A437B689B691A437B68DB691A43DC
:102B10007B681B6A13437A6913437B617B685B6A3A
:102B2000042B07D17B68DA6A7B681B6B13437A69D5
:102B300013437B61714B1A68714B1340B3F1005F13
:102B400028D37B685B68282B03D97B685B682E2BB6
:102B500017D97B685B683E2B03D97B685B68422B87
:102B60000FD97B685B68462B03D97B685B68482B71
:102B700007D97B685B684E2B05D97B685B68522B55
:102B800001D8012300E00023002B03D07B6943F42C
:102B900080137B617B681B687A691A607B681B689D
:102BA0005B697B617B6923F007037B617B685B6A00
:102BB0007A6913437B617B685B6A042B17D17B685E
:102BC0009B6A7A6913437B617B68DB6A002B0ED0BA
:102BD000786802F033FB0346002B08D07B68402264
:102BE0005A657B68012283F83520012397E17B68D1
:102BF0001B687A695A61786802F06EFA0346BB6016
:102C00007B68DB6D03F01F033F229A40BB689A602C
:102C1000CDE07B681B683B4A934222D07B681B68EF
:102C2000394A93421DD07B681B68384A934218D0BA
:102C30007B681B68364A934213D07B681B68354A11
:102C400093420ED07B681B68334A934209D07B685D
:102C50001B68324A934204D07B681B68304A934217
:102C600001D1012300E00023002B00F097807B6856
:102C70001B68244A934221D07B681B68224A9342F6
:102C80001CD07B681B68214A934217D07B681B6865
:102C90001F4A934212D07B681B681E4A93420DD094
:102CA0007B681B681C4A934208D07B681B681B4AE0
:102CB000934203D07B681B68194A93427B680222C7
:102CC00083F835207B68002283F834207B681B68FA
:102CD0001B687B617A69134B13407B617B689B683F
:102CE000402B21D07B689B68802B02D14FF480431E
:102CF0001BE0002319E000BF3F8010FE0010005CC5
:102D00000000FFFF085402581C5402583054025867
:102D100044540258585402586C5402588054025873
:102D2000945402580F00FEFF10237A68D268D2082C
:102D30001A437B681B69DB081A437B685B69DB0805
:102D40001A437B689B69DB081A437B68DB69DB08F5
:102D50001A437B681B6A1B0913437A6913437B611F
:102D60007B681B687A691A607B681B681A466E4B21
:102D700013446E4AA2FB03231B099A007B68DA65A1
:102D8000786802F0A9F90346FB607B68DB6D03F00D
:102D90001F0301229A40FB685A6008E07B684022CA
:102DA0005A657B68032283F835200123B7E07B68EE
:102DB0001B685F4A934272D07B681B685D4A9342EE
:102DC0006DD07B681B685C4A934268D07B681B6847
:102DD0005A4A934263D07B681B68594A93425ED03B
:102DE0007B681B68574A934259D07B681B68564AD8
:102DF000934254D07B681B68544A93424FD07B68FF
:102E00001B68534A93424AD07B681B68514A9342DD
:102E100045D07B681B68504A934240D07B681B6852
:102E20004E4A93423BD07B681B684D4A934236D052
:102E30007B681B684B4A934231D07B681B684A4AC7
:102E400093422CD07B681B68484A934227D07B680A
:102E50001B68474A934222D07B681B68454A9342CD
:102E60001DD07B681B68444A934218D07B681B685E
:102E7000424A934213D07B681B68414A93420ED06A
:102E80007B681B683F4A934209D07B681B683E4AB7
:102E9000934204D07B681B683C4A934201D10123D2
:102EA00000E00023002B32D0786802F043FA7B6800
:102EB0009B68802B02D17B6800225A607B685A682D
:102EC0007B681B6ED2B21A607B685B6E7A68926E0A
:102ED0005A607B685B68002B10D07B685B68082BAE
:102EE0000CD8786802F0C0FA7B68DB6E00221A60AA
:102EF0007B681B6F7A68526F5A6008E07B6800221B
:102F0000DA667B6800221A677B6800225A677B6852
:102F100000225A657B68012283F835200023184679
:102F20001837BD4680BD00BFF8ABFDA7CDCCCCCCDB
:102F300010000240280002404000024058000240B9
:102F40007000024088000240A0000240B800024029
:102F50001004024028040240400402405804024089
:102F60007004024088040240A0040240B8040240F9
:102F7000085402581C540258305402584454025801
:102F8000585402586C5402588054025894540258B1
:102F900080B586B000AFF860B9607A603B6000230E
:102FA000FB75FB68002B01D1012326E2FB6893F837
:102FB0003430012B01D102231FE2FB68012283F888
:102FC0003420FB6893F83530DBB2012B40F00A82E5
:102FD000FB68022283F83520FB6800225A65FB68F3
:102FE0001B68684A93424AD0FB681B68664A934252
:102FF00045D0FB681B68654A934240D0FB681B685C
:10300000634A93423BD0FB681B68624A934236D0C6
:10301000FB681B68604A934231D0FB681B685F4ABB
:1030200093422CD0FB681B685D4A934227D0FB6813
:103030001B685C4A934222D0FB681B685A4A934241
:103040001DD0FB681B68594A934218D0FB681B6867
:10305000574A934213D0FB681B68564A93420ED0DE
:10306000FB681B68544A934209D0FB681B68534AAB
:10307000934204D0FB681B68514A934208D1FB6815
:103080001B681A68FB681B6822F001021A6007E0DF
:10309000FB681B681A68FB681B6822F001021A6053
:1030A0003B687A68B968F86801F06AFEFB681B68DB
:1030B000344A93424AD0FB681B68334A934245D056
:1030C000FB681B68314A934240D0FB681B68304A5A
:1030D00093423BD0FB681B682E4A934236D0FB6874
:1030E0001B682D4A934231D0FB681B682B4A9342E0
:1030F0002CD0FB681B682A4A934227D0FB681B68C8
:10310000284A934222D0FB681B68274A93421DD06D
:10311000FB681B68254A934218D0FB681B68244A49
:10312000934213D0FB681B68224A93420ED0FB687F
:103130001B68214A934209D0FB681B681F4A9342CF
:1031400004D0FB681B681E4A934201D1012300E0B2
:103150000023002B36D0FB681B681B6823F01E027F
:10316000FB681B6842F016021A60FB681B6C002BA0
:103170003ED0FB681B681A68FB681B6842F00802B7
:103180001A6035E010000240280002404000024072
:10319000580002407000024088000240A000024037
:1031A000B8000240100402402804024040040240DB
:1031B000580402407004024088040240A004024007
:1031C000B8040240FB681B681B6823F00E02FB6812
:1031D0001B6842F00A021A60FB681B6C002B07D0C8
:1031E000FB681B681A68FB681B6842F004021A60DF
:1031F000FB681B68834A934272D0FB681B68824A53
:1032000093426DD0FB681B68804A934268D0FB688C
:103210001B687F4A934263D0FB681B687D4A9342D8
:103220005ED0FB681B687C4A934259D0FB681B68E0
:103230007A4A934254D0FB681B68794A93424FD034
:10324000FB681B68774A93424AD0FB681B68764A42
:10325000934245D0FB681B68744A934240D0FB6898
:103260001B68734A93423BD0FB681B68714A9342C8
:1032700036D0FB681B68704A934231D0FB681B68EC
:103280006E4A93422CD0FB681B686D4A934227D04C
:10329000FB681B686B4A934222D0FB681B686A4A32
:1032A00093421DD0FB681B68684A934218D0FB68A4
:1032B0001B68674A934213D0FB681B68654A9342B8
:1032C0000ED0FB681B68644A934209D0FB681B68F8
:1032D000624A934204D0FB681B68614A934201D161
:1032E000012300E00023002B1AD0FB681B6E1B6833
:1032F00003F48033002B07D0FB681B6E1A68FB6851
:103300001B6E42F480721A60FB68DB6E002B07D0E4
:10331000FB68DB6E1A68FB68DB6E42F480721A6031
:10332000FB681B68374A93424AD0FB681B68364AE1
:10333000934245D0FB681B68344A934240D0FB68F7
:103340001B68334A93423BD0FB681B68314A934267
:1033500036D0FB681B68304A934231D0FB681B684B
:103360002E4A93422CD0FB681B682D4A934227D0EB
:10337000FB681B682B4A934222D0FB681B682A4AD1
:1033800093421DD0FB681B68284A934218D0FB6803
:103390001B68274A934213D0FB681B68254A934257
:1033A0000ED0FB681B68244A934209D0FB681B6857
:1033B000224A934204D0FB681B68214A934208D1F9
:1033C000FB681B681A68FB681B6842F001021A6000
:1033D00012E0FB681B681A68FB681B6842F0010278
:1033E0001A6009E0FB684FF400625A65FB6800222E
:1033F00083F834200123FB75FB7D18461837BD4642
:1034000080BD00BF10000240280002404000024082
:10341000580002407000024088000240A0000240B4
:10342000B800024010040240280402404004024058
:10343000580402407004024088040240A004024084
:10344000B8040240085402581C5402583054025820
:1034500044540258585402586C540258805402582C
:103460009454025880B586B000AF7860FFF7FAF840
:1034700038617B68002B01D10123DCE27B6893F883
:103480003530DBB2022B08D07B6880225A657B681E
:10349000002283F834200123CDE27B681B68644A54
:1034A00093424AD07B681B68624A934245D07B684E
:1034B0001B68614A934240D07B681B685F4A934215
:1034C0003BD07B681B685E4A934236D07B681B68A2
:1034D0005C4A934231D07B681B685B4A93422CD094
:1034E0007B681B68594A934227D07B681B68584AFF
:1034F000934222D07B681B68564A93421DD07B685A
:103500001B68554A934218D07B681B68534A934204
:1035100013D07B681B68524A93420ED07B681B68AD
:10352000504A934209D07B681B684F4A934204D0AB
:103530007B681B684D4A934208D17B681B681A68F8
:103540007B681B6822F001021A6007E07B681B6839
:103550001A687B681B6822F001021A607B681B688E
:10356000334A93424AD07B681B68324A934245D023
:103570007B681B68304A934240D07B681B682F4AA7
:1035800093423BD07B681B682D4A934236D07B68C0
:103590001B682C4A934231D07B681B682A4A9342AD
:1035A0002CD07B681B68294A934227D07B681B6814
:1035B000274A934222D07B681B68264A93421DD03B
:1035C0007B681B68244A934218D07B681B68234A97
:1035D000934213D07B681B68214A93420ED07B68CC
:1035E0001B68204A934209D07B681B681E4A93429D
:1035F00004D07B681B681D4A934201D1012300E07F
:103600000023002B34D07B681B681A687B681B681A
:1036100022F01E021A607B681B685A697B681B686F
:1036200022F080025A617B681B687B612BE000BF3F
:1036300010000240280002404000024058000240B2
:103640007000024088000240A0000240B800024022
:103650001004024028040240400402405804024082
:103660007004024088040240A0040240B8040240F2
:103670007B681B681A687B681B6822F00E021A6060
:103680007B681B687B617B681B687F4A934272D0B2
:103690007B681B687D4A93426DD07B681B687C4ABF
:1036A000934268D07B681B687A4A934263D07B68F8
:1036B0001B68794A93425ED07B681B68774A9342C5
:1036C00059D07B681B68764A934254D07B681B684C
:1036D000744A93424FD07B681B68734A93424AD026
:1036E0007B681B68714A934245D07B681B68704AAF
:1036F000934240D07B681B686E4A93423BD07B6804
:103700001B686D4A934236D07B681B686B4A9342B4
:1037100031D07B681B686A4A93422CD07B681B6857
:10372000684A934227D07B681B68674A934222D03D
:103730007B681B68654A93421DD07B681B68644A9E
:10374000934218D07B681B68624A934213D07B680F
:103750001B68614A93420ED07B681B685F4A9342A4
:1037600009D07B681B685E4A934204D07B681B6863
:103770005C4A934201D1012300E00023002B1CD0BE
:103780007B681B6E1A687B681B6E22F480721A605D
:1037900013E0FEF767FF02463B69D31A052B0CD9ED
:1037A0007B6820225A657B68032283F835207B687A
:1037B000002283F8342001233DE17B691B6803F07C
:1037C0000103002BE5D17B681B682F4A93424AD046
:1037D0007B681B682D4A934245D07B681B682C4A46
:1037E000934240D07B681B682A4A93423BD07B6857
:1037F0001B68294A934236D07B681B68274A93424C
:1038000031D07B681B68264A93422CD07B681B68AA
:10381000244A934227D07B681B68234A934222D0D4
:103820007B681B68214A93421DD07B681B68204A35
:10383000934218D07B681B681E4A934213D07B6862
:103840001B681D4A93420ED07B681B681B4A93423B
:1038500009D07B681B681A4A934204D07B681B68B6
:10386000184A934201D1012300E00023002B3BD0F2
:103870007B689B6DBB607B68DB6D03F01F033F22A1
:103880009A40BB689A603AE010000240280002406B
:103890004000024058000240700002408800024090
:1038A000A0000240B8000240100402402804024078
:1038B0004004024058040240700402408804024060
:1038C000A0040240B8040240085402581C54025894
:1038D0003054025844540258585402586C540258F8
:1038E00080540258945402587B689B6DFB607B683F
:1038F000DB6D03F01F0301229A40FB685A607B686E
:103900001B684F4A934272D07B681B684D4A9342B2
:103910006DD07B681B684C4A934268D07B681B68FB
:103920004A4A934263D07B681B68494A93425ED0FF
:103930007B681B68474A934259D07B681B68464A9C
:10394000934254D07B681B68444A93424FD07B68B3
:103950001B68434A93424AD07B681B68414A9342A2
:1039600045D07B681B68404A934240D07B681B6807
:103970003E4A93423BD07B681B683D4A934236D017
:103980007B681B683B4A934231D07B681B683A4A8C
:1039900093422CD07B681B68384A934227D07B68BF
:1039A0001B68374A934222D07B681B68354A934292
:1039B0001DD07B681B68344A934218D07B681B6813
:1039C000324A934213D07B681B68314A93420ED02F
:1039D0007B681B682F4A934209D07B681B682E4A7C
:1039E000934204D07B681B682C4A934201D1012387
:1039F00000E00023002B15D07B685B6E7A68926E26
:103A00005A607B68DB6E002B0CD07B68DB6E1A681B
:103A10007B68DB6E22F480721A607B681B6F7A68A9
:103A2000526F5A607B68012283F835207B68002240
:103A300083F83420002318461837BD4680BD00BFE8
:103A4000100002402800024040000240580002409E
:103A50007000024088000240A0000240B80002400E
:103A6000100402402804024040040240580402406E
:103A70007004024088040240A0040240B8040240DE
:103A8000085402581C5402583054025844540258E6
:103A9000585402586C540258805402589454025896
:103AA00080B584B000AF78607B68002B01D1012322
:103AB00037E27B6893F83530DBB2022B04D07B68A9
:103AC00080225A6501232CE27B681B685C4A934282
:103AD0004AD07B681B685B4A934245D07B681B6871
:103AE000594A934240D07B681B68584A93423BD066
:103AF0007B681B68564A934236D07B681B68554AE0
:103B0000934231D07B681B68534A93422CD07B6828
:103B10001B68524A934227D07B681B68504A9342E5
:103B200022D07B681B684F4A93421DD07B681B687C
:103B30004D4A934218D07B681B684C4A934213D07D
:103B40007B681B684A4A93420ED07B681B68494ACF
:103B5000934209D07B681B68474A934204D07B6834
:103B60001B68464A934201D1012300E00023002B49
:103B700000F086807B68042283F835207B681B6810
:103B80002F4A93424AD07B681B682E4A934245D005
:103B90007B681B682C4A934240D07B681B682B4A89
:103BA00093423BD07B681B68294A934236D07B689E
:103BB0001B68284A934231D07B681B68264A93428F
:103BC0002CD07B681B68254A934227D07B681B68F2
:103BD000234A934222D07B681B68224A93421DD01D
:103BE0007B681B68204A934218D07B681B681F4A79
:103BF000934213D07B681B681D4A93420ED07B68AA
:103C00001B681C4A934209D07B681B681A4A93427E
:103C100004D07B681B68194A934208D17B681B68F3
:103C20001A687B681B6822F001021A6078E17B68E1
:103C30001B681A687B681B6822F001021A606FE13A
:103C4000100002402800024040000240580002409C
:103C50007000024088000240A0000240B80002400C
:103C6000100402402804024040040240580402406C
:103C70007004024088040240A0040240B8040240DC
:103C80007B681B68704A93424AD07B681B686F4A06
:103C9000934245D07B681B686D4A934240D07B6855
:103CA0001B686C4A93423BD07B681B686A4A93420C
:103CB00036D07B681B68694A934231D07B681B68A9
:103CC000674A93422CD07B681B68664A934227D090
:103CD0007B681B68644A934222D07B681B68634AF6
:103CE00093421DD07B681B68614A934218D07B6861
:103CF0001B68604A934213D07B681B685E4A9342FC
:103D00000ED07B681B685D4A934209D07B681B68B4
:103D10005B4A934204D07B681B685A4A934208D19D
:103D20007B681B681A687B681B6822F001021A60B6
:103D300007E07B681B681A687B681B6822F0010239
:103D40001A607B681B681A687B681B6822F00E0289
:103D50001A607B681B683C4A934272D07B681B6880
:103D60003A4A93426DD07B681B68394A934268D0C7
:103D70007B681B68374A934263D07B681B68364A6E
:103D800093425ED07B681B68344A934259D07B686B
:103D90001B68334A934254D07B681B68314A934274
:103DA0004FD07B681B68304A93424AD07B681B68BF
:103DB0002E4A934245D07B681B682D4A934240D0DF
:103DC0007B681B682B4A93423BD07B681B682A4A5E
:103DD000934236D07B681B68284A934231D07B6877
:103DE0001B68274A93422CD07B681B68254A934264
:103DF00027D07B681B68244A934222D07B681B68CB
:103E0000224A93421DD07B681B68214A934218D0F6
:103E10007B681B681F4A934213D07B681B681E4A4D
:103E200093420ED07B681B681C4A934209D07B6882
:103E30001B681B4A934204D07B681B68194A934253
:103E400032D1012331E000BF1000024028000240BF
:103E500040000240580002407000024088000240CA
:103E6000A0000240B80002401004024028040240B2
:103E7000400402405804024070040240880402409A
:103E8000A0040240B8040240085402581C540258CE
:103E90003054025844540258585402586C54025832
:103EA00080540258945402580023002B28D07B6879
:103EB0001B6E1A687B681B6E22F480721A607B6826
:103EC0009B6DFB607B68DB6D03F01F0301229A4052
:103ED000FB685A607B685B6E7A68926E5A607B689A
:103EE000DB6E002B0CD07B68DB6E1A687B68DB6EA8
:103EF00022F480721A607B681B6F7A68526F5A6076
:103F00007B68012283F835207B68002283F8342007
:103F10007B681B6D002B03D07B681B6D786898470E
:103F2000002318461037BD4680BD00BF80B58AB05B
:103F300000AF78600023FB60674B1B68674AA2FBF9
:103F400003239B0A7B627B689B6D3B627B689B6D56
:103F5000FB613B6A1B68BB61FB691B687B617B681B
:103F60001B685F4A93424AD07B681B685D4A934254
:103F700045D07B681B685C4A934240D07B681B68D5
:103F80005A4A93423BD07B681B68594A934236D0C9
:103F90007B681B68574A934231D07B681B68564A3E
:103FA00093422CD07B681B68544A934227D07B688D
:103FB0001B68534A934222D07B681B68514A934244
:103FC0001DD07B681B68504A934218D07B681B68E1
:103FD0004E4A934213D07B681B684D4A93420ED0E1
:103FE0007B681B684B4A934209D07B681B684A4A2E
:103FF000934204D07B681B68484A934201D1012355
:1040000000E00023002B00F02B847B68DB6D03F0C5
:104010001F0308229A40BB691340002B00F0A280C6
:104020007B681B682E4A93424AD07B681B682D4AE6
:10403000934245D07B681B682B4A934240D07B68F3
:104040001B682A4A93423BD07B681B68284A9342EC
:1040500036D07B681B68274A934231D07B681B6847
:10406000254A93422CD07B681B68244A934227D070
:104070007B681B68224A934222D07B681B68214AD6
:1040800093421DD07B681B681F4A934218D07B68FF
:104090001B681E4A934213D07B681B681C4A9342DC
:1040A0000ED07B681B681B4A934209D07B681B6853
:1040B000194A934204D07B681B68184A93422FD157
:1040C0007B681B681B6803F00403002B14BF0123EB
:1040D0000023DBB22EE000BF00000024B5814E1BA0
:1040E00010000240280002404000024058000240F8
:1040F0007000024088000240A0000240B800024068
:1041000010040240280402404004024058040240C7
:104110007004024088040240A0040240B804024037
:104120007B681B681B6803F00803002B14BF012386
:104130000023DBB2002B15D07B681B681A687B68F4
:104140001B6822F004021A607B68DB6D03F01F031A
:1041500008229A403B6A9A607B685B6D43F00102DB
:104160007B685A657B68DB6D03F01F03BA6922FA2E
:1041700003F303F00103002B6ED07B681B68694AD0
:1041800093424AD07B681B68674A934245D07B685C
:104190001B68664A934240D07B681B68644A93421E
:1041A0003BD07B681B68634A934236D07B681B68B0
:1041B000614A934231D07B681B68604A93422CD09D
:1041C0007B681B685E4A934227D07B681B685D4A08
:1041D000934222D07B681B685B4A93421DD07B6868
:1041E0001B685A4A934218D07B681B68584A93420E
:1041F00013D07B681B68574A93420ED07B681B68BC
:10420000554A934209D07B681B68544A934204D0B4
:104210007B681B68524A93420AD17B681B685B69C2
:1042200003F08003002B14BF01230023DBB203E063
:104230007B681B681B680023002B0DD07B68DB6D3F
:1042400003F01F0301229A403B6A9A607B685B6D12
:1042500043F002027B685A657B68DB6D03F01F0345
:1042600004229A40BB691340002B00F08F807B68CA
:104270001B682C4A93424AD07B681B682A4A9342A7
:1042800045D07B681B68294A934240D07B681B68F5
:10429000274A93423BD07B681B68264A934236D01C
:1042A0007B681B68244A934231D07B681B68234A91
:1042B00093422CD07B681B68214A934227D07B68AD
:1042C0001B68204A934222D07B681B681E4A934297
:1042D0001DD07B681B681D4A934218D07B681B6801
:1042E0001B4A934213D07B681B681A4A93420ED034
:1042F0007B681B68184A934209D07B681B68174A81
:10430000934204D07B681B68154A93422AD17B688C
:104310001B681B6803F00203002B14BF012300235A
:10432000DBB223E0100002402800024040000240BF
:10433000580002407000024088000240A000024085
:10434000B800024010040240280402404004024029
:10435000580402407004024088040240A004024055
:10436000B80402407B681B681B680023002B0DD03B
:104370007B68DB6D03F01F0304229A403B6A9A605E
:104380007B685B6D43F004027B685A657B68DB6D7C
:1043900003F01F0310229A40BB691340002B00F06A
:1043A000A6807B681B68854A93424AD07B681B685D
:1043B000834A934245D07B681B68824A934240D02F
:1043C0007B681B68804A93423BD07B681B687F4AAE
:1043D000934236D07B681B687D4A934231D07B681C
:1043E0001B687C4A93422CD07B681B687A4A9342B4
:1043F00027D07B681B68794A934222D07B681B6870
:10440000774A93421DD07B681B68764A934218D046
:104410007B681B68744A934213D07B681B68734A9D
:1044200093420ED07B681B68714A934209D07B6827
:104430001B68704A934204D07B681B686E4A9342A3
:104440000AD17B681B681B6803F00803002B14BFAC
:1044500001230023DBB209E07B681B681B6803F0C3
:104460000403002B14BF01230023DBB2002B3ED03A
:104470007B68DB6D03F01F0310229A403B6A9A6051
:104480007B681B681B6803F48023002B18D07B68B3
:104490001B681B6803F40023002B08D17B681B6C8E
:1044A000002B24D07B681B6C786898471FE07B68E2
:1044B0009B6C002B1BD07B689B6C7868984716E040
:1044C0007B681B681B6803F48073002B07D17B6833
:1044D0001B681A687B681B6822F008021A607B68F8
:1044E0001B6C002B03D07B681B6C786898477B683B
:1044F000DB6D03F01F0320229A40BB691340002BA1
:1045000000F010817B681B682C4A93424AD07B687C
:104510001B682B4A934245D07B681B68294A93420B
:1045200040D07B681B68284A93423BD07B681B685D
:10453000264A934236D07B681B68254A934231D085
:104540007B681B68234A93422CD07B681B68224AF5
:10455000934227D07B681B68204A934222D07B6815
:104560001B681F4A93421DD07B681B681D4A9342FB
:1045700018D07B681B681C4A934213D07B681B6869
:104580001A4A93420ED07B681B68194A934209D09D
:104590007B681B68174A934204D07B681B68164AE5
:1045A00093422BD17B681B681B6803F01003002B20
:1045B00014BF01230023DBB22AE000BF1000024039
:1045C00028000240400002405800024070000240B3
:1045D00088000240A0000240B800024010040240DF
:1045E0002804024040040240580402407004024083
:1045F00088040240A0040240B80402407B681B68A3
:104600001B6803F00203002B14BF01230023DBB25D
:10461000002B00F087807B68DB6D03F01F032022F6
:104620009A403B6A9A607B6893F83530DBB2042B82
:1046300039D17B681B681A687B681B6822F01602F8
:104640001A607B681B685A697B681B6822F08002CD
:104650005A617B681B6C002B03D17B689B6C002B21
:1046600007D07B681B681A687B681B6822F0080209
:104670001A607B68DB6D03F01F033F229A403B6AA0
:104680009A607B68012283F835207B68002283F8DA
:1046900034207B681B6D002B00F04A837B681B6D08
:1046A0007868984744E37B681B681B6803F48023A1
:1046B000002B18D07B681B681B6803F40023002BB9
:1046C00008D07B685B6C002B2CD07B685B6C7868B7
:1046D000984727E07B68DB6B002B23D07B68DB6B84
:1046E000786898471EE07B681B681B6803F480733A
:1046F000002B0FD17B681B681A687B681B6822F04F
:1047000010021A607B68012283F835207B68002242
:1047100083F834207B68DB6B002B03D07B68DB6B7A
:10472000786898477B685B6D002B00F006837B6898
:104730005B6D03F00103002B00F088807B6804228E
:1047400083F835207B681B687A4A93424AD07B689D
:104750001B68794A934245D07B681B68774A93422D
:1047600040D07B681B68764A93423BD07B681B68CD
:10477000744A934236D07B681B68734A934231D0A7
:104780007B681B68714A93422CD07B681B68704A17
:10479000934227D07B681B686E4A934222D07B6885
:1047A0001B686D4A93421DD07B681B686B4A93421D
:1047B00018D07B681B686A4A934213D07B681B68D9
:1047C000684A93420ED07B681B68674A934209D0BF
:1047D0007B681B68654A934204D07B681B68644A07
:1047E000934208D17B681B681A687B681B6822F0BB
:1047F00001021A6007E07B681B681A687B681B6807
:1048000022F001021A60FB680133FB607A6A9A4267
:1048100007D37B681B681B6803F00103002BF2D1F0
:1048200000E000BF7B681B681B6803F00103002BDE
:1048300004D07B68032283F8352003E07B680122E3
:1048400083F835207B68002283F834207B68DB6C9A
:10485000002B00F072827B68DB6C786898476CE212
:104860007B681B68434A934222D07B681B68424A9C
:1048700093421DD07B681B68404A934218D07B68E6
:104880001B683F4A934213D07B681B683D4A9342A2
:104890000ED07B681B683C4A934209D07B681B683A
:1048A0003A4A934204D07B681B68394A934201D14B
:1048B000012300E00023002B00F03F827B681B688F
:1048C0001B683B617B68DB6D03F01F0304229A4089
:1048D0007B691340002B00F0CD803B6903F004039B
:1048E000002B00F0C7807B68DB6D03F01F03042200
:1048F0009A40FB695A603B6903F40043002B49D09E
:104900003B6903F48033002B09D07B689B6C002B40
:1049100000F010827B689B6C786898470AE27B689D
:104920001B6C002B00F006827B681B6C7868984734
:1049300000E200BF10000240280002404000024098
:10494000580002407000024088000240A00002406F
:10495000B800024010040240280402404004024013
:10496000580402407004024088040240A00402403F
:10497000B8040240085402581C54025830540258DB
:1049800044540258585402586C54025880540258E7
:10499000945402583B6903F02003002B60D17B68DC
:1049A0001B687F4A93424AD07B681B687D4A9342CA
:1049B00045D07B681B687C4A934240D07B681B686B
:1049C0007A4A93423BD07B681B68794A934236D03F
:1049D0007B681B68774A934231D07B681B68764AB4
:1049E00093422CD07B681B68744A934227D07B6823
:1049F0001B68734A934222D07B681B68714A9342BA
:104A00001DD07B681B68704A934218D07B681B6876
:104A10006E4A934213D07B681B686D4A93420ED056
:104A20007B681B686B4A934209D07B681B686A4AA3
:104A3000934204D07B681B68684A934208D17B6824
:104A40001B681A687B681B6822F008021A6007E07E
:104A50007B681B681A687B681B6822F004021A6076
:104A60007B681B6C002B00F065817B681B6C786891
:104A700098475FE17B68DB6D03F01F0302229A40D9
:104A80007B691340002B00F0C5803B6903F00203F3
:104A9000002B00F0BF807B68DB6D03F01F03022258
:104AA0009A40FB695A603B6903F40043002B18D01D
:104AB0003B6903F48033002B09D17B685B6C002BCE
:104AC00000F03A817B685B6C7868984734E17B68DA
:104AD000DB6B002B00F030817B68DB6B78689847DC
:104AE0002AE13B6903F02003002B40F089807B68BA
:104AF0001B682B4A93424AD07B681B68294A934221
:104B000045D07B681B68284A934240D07B681B686D
:104B1000264A93423BD07B681B68254A934236D095
:104B20007B681B68234A934231D07B681B68224A0A
:104B300093422CD07B681B68204A934227D07B6825
:104B40001B681F4A934222D07B681B681D4A934210
:104B50001DD07B681B681C4A934218D07B681B6879
:104B60001A4A934213D07B681B68194A93420ED0AD
:104B70007B681B68174A934209D07B681B68164AFA
:104B8000934204D07B681B68144A934228D17B6807
:104B90001B681A687B681B6822F014021A6027E001
:104BA000100002402800024040000240580002402D
:104BB0007000024088000240A0000240B80002409D
:104BC00010040240280402404004024058040240FD
:104BD0007004024088040240A0040240B80402406D
:104BE0007B681B681A687B681B6822F00A021A60DF
:104BF0007B68012283F835207B68002283F834200B
:104C00007B68DB6B002B00F097807B68DB6B786840
:104C1000984791E07B68DB6D03F01F0308229A4000
:104C20007B691340002B00F088803B6903F0080388
:104C3000002B00F082807B681B68414A93424AD077
:104C40007B681B683F4A934245D07B681B683E4A9D
:104C5000934240D07B681B683C4A93423BD07B68C0
:104C60001B683B4A934236D07B681B68394A9342A3
:104C700031D07B681B68384A93422CD07B681B6814
:104C8000364A934227D07B681B68354A934222D02C
:104C90007B681B68334A93421DD07B681B68324A8D
:104CA000934218D07B681B68304A934213D07B68CC
:104CB0001B682F4A93420ED07B681B682D4A934293
:104CC00009D07B681B682C4A934204D07B681B6820
:104CD0002A4A934208D17B681B681A687B681B6864
:104CE00022F01C021A6007E07B681B681A687B6868
:104CF0001B6822F00E021A607B68DB6D03F01F0355
:104D000001229A40FB695A607B6801225A657B68E0
:104D1000012283F835207B68002283F834207B68E9
:104D2000DB6C002B09D07B68DB6C7868984704E06B
:104D300000BF02E000BF00E000BF2837BD4680BDD5
:104D4000100002402800024040000240580002408B
:104D50007000024088000240A0000240B8000240FB
:104D6000100402402804024040040240580402405B
:104D70007004024088040240A0040240B8040240CB
:104D800080B487B000AFF860B9607A603B60FB68C0
:104D90009B6D7B61FB689B6D3B61FB681B687F4A79
:104DA000934272D0FB681B687D4A93426DD0FB68CA
:104DB0001B687C4A934268D0FB681B687A4A93421E
:104DC00063D0FB681B68794A93425ED0FB681B681E
:104DD000774A934259D0FB681B68764A934254D075
:104DE000FB681B68744A93424FD0FB681B68734A88
:104DF00093424AD0FB681B68714A934245D0FB68D6
:104E00001B68704A934240D0FB681B686E4A93420D
:104E10003BD0FB681B686D4A934236D0FB681B6829
:104E20006B4A934231D0FB681B686A4A93422CD08C
:104E3000FB681B68684A934227D0FB681B68674A77
:104E4000934222D0FB681B68654A93421DD0FB68E1
:104E50001B68644A934218D0FB681B68624A9342FD
:104E600013D0FB681B68614A93420ED0FB681B6835
:104E70005F4A934209D0FB681B685E4A934204D0A4
:104E8000FB681B685C4A934201D1012300E00023C8
:104E9000002B0DD0FB685B6EFA68926E5A60FB685F
:104EA000DB6E002B04D0FB681B6FFA68526F5A60F0
:104EB000FB681B68394A93424AD0FB681B68384A32
:104EC000934245D0FB681B68364A934240D0FB684A
:104ED0001B68354A93423BD0FB681B68334A9342B8
:104EE00036D0FB681B68324A934231D0FB681B689E
:104EF000304A93422CD0FB681B682F4A934227D03C
:104F0000FB681B682D4A934222D0FB681B682C4A21
:104F100093421DD0FB681B682A4A934218D0FB6855
:104F20001B68294A934213D0FB681B68274A9342A7
:104F30000ED0FB681B68264A934209D0FB681B68A9
:104F4000244A934204D0FB681B68234A934201D150
:104F5000012300E00023002B59D0FB68DB6D03F038
:104F60001F033F229A407B699A60FB681B681A689E
:104F7000FB681B6822F480221A60FB681B683A6891
:104F80005A60FB689B68402B38D1FB681B687A68C5
:104F90009A60FB681B68BA68DA6086E0100002401D
:104FA00028000240400002405800024070000240C9
:104FB00088000240A0000240B800024010040240F5
:104FC0002804024040040240580402407004024099
:104FD00088040240A0040240B80402400854025869
:104FE0001C54025830540258445402585854025821
:104FF0006C5402588054025894540258FB681B6841
:10500000BA689A60FB681B687A68DA604DE0FB68F2
:105010001B68294A934222D0FB681B68274A9342A7
:105020001DD0FB681B68264A934218D0FB681B689A
:10503000244A934213D0FB681B68234A93420ED044
:10504000FB681B68214A934209D0FB681B68204A11
:10505000934204D0FB681B681E4A934201D101238E
:1050600000E00023002B20D0FB68DB6D03F01F0362
:1050700001229A403B695A60FB681B683A685A6093
:10508000FB689B68402B08D1FB681B687A689A60B4
:10509000FB681B68BA68DA6007E0FB681B68BA68DF
:1050A0009A60FB681B687A68DA6000BF1C37BD46EF
:1050B0005DF8047B704700BF085402581C54025826
:1050C0003054025844540258585402586C540258F0
:1050D000805402589454025880B485B000AF786070
:1050E0007B681B68424A93424AD07B681B68414AEE
:1050F000934245D07B681B683F4A934240D07B680F
:105100001B683E4A93423BD07B681B683C4A9342F3
:1051100036D07B681B683B4A934231D07B681B6862
:10512000394A93422CD07B681B68384A934227D077
:105130007B681B68364A934222D07B681B68354ADD
:1051400093421DD07B681B68334A934218D07B681A
:105150001B68324A934213D07B681B68304A9342E3
:105160000ED07B681B682F4A934209D07B681B686E
:105170002D4A934204D07B681B682C4A934201D18C
:10518000012300E00023002B24D07B681B68DBB2E6
:10519000103B274AA2FB03231B09FB60FB6803F0BB
:1051A0000703244AD35C1A467B68DA65FB68032B45
:1051B00008D97B681B681A461F4B13401A1D7B6871
:1051C0009A650DE07B681B681A461B4B13407A6892
:1051D000936505E07B681B6823F0FF027B689A6596
:1051E0007B689B6D18461437BD465DF8047B70479D
:1051F00010000240280002404000024058000240D7
:105200007000024088000240A0000240B800024046
:1052100010040240280402404004024058040240A6
:105220007004024088040240A0040240B804024016
:10523000ABAAAAAA30C0000800FCFFFF80B485B06A
:1052400000AF78600023FB737B689B69002B20D143
:105250007B689B6A032B58D801A252F823F000BF49
:105260007152000883520008715200080B53000865
:105270007B68DB6A03F08073002B48D00123FB734B
:1052800045E07B68DB6AB3F1C07F42D10123FB7349
:105290003FE07B689B69B3F5005F23D17B689B6A25
:1052A000032B38D801A252F823F000BFBD520008EA
:1052B000C3520008BD520008D55200080123FB73F9
:1052C00030E07B68DB6A03F08073002B25D001237C
:1052D000FB7322E07B68DB6AB3F1C07F1FD101233F
:1052E000FB731CE07B689B6A022B02D9032B03D063
:1052F00018E00123FB7315E07B68DB6A03F0807321
:10530000002B0ED00123FB730BE000BF0AE000BFAF
:1053100008E000BF06E000BF04E000BF02E000BFFD
:1053200000E000BFFB7B18461437BD465DF8047BE8
:10533000704700BF80B485B000AF78607B681B68A1
:10534000BB607B681B68384A934222D07B681B682D
:10535000364A93421DD07B681B68354A934218D069
:105360007B681B68334A934213D07B681B68324AC0
:1053700093420ED07B681B68304A934209D07B6809
:105380001B682F4A934204D07B681B682D4A9342C6
:1053900001D1012300E00023002B1AD07B681B6899
:1053A000DBB2083B284AA2FB03231B09FB60FA6817
:1053B000264B13449B001A467B681A667B68244A76
:1053C0005A66FB6803F01F0301229A407B689A66C5
:1053D00024E07B681B68DBB2103B1E4AA2FB032360
:1053E0001B09FB60BB681C4A934206D8BB681B4A7A
:1053F000934202D9FB680833FB60FA68184B1344E8
:105400009B001A467B681A667B68164A5A66FB68D8
:1054100003F01F0301229A407B689A6600BF14378D
:10542000BD465DF8047B7047085402581C5402586E
:105430003054025844540258585402586C5402587C
:105440008054025894540258CDCCCCCC009600160F
:1054500080580258ABAAAAAAB80402400F0402401E
:10546000008200108008024080B485B000AF7860F0
:105470007B685B68DBB2FB60FB68002B4AD0FB6893
:10548000082B47D87B681B68254A934222D07B684B
:105490001B68244A93421DD07B681B68224A9342B2
:1054A00018D07B681B68214A934213D07B681B6825
:1054B0001F4A93420ED07B681B681E4A934209D054
:1054C0007B681B681C4A934204D07B681B681B4A9C
:1054D000934201D1012300E00023002B0AD0FA6897
:1054E000174B13449B001A467B68DA667B68154AA3
:1054F0001A6709E0FA68144B13449B001A467B684C
:10550000DA667B68114A1A67FB68013B01229A4000
:105510007B685A6700BF1437BD465DF8047B70474F
:10552000085402581C54025830540258445402582B
:10553000585402586C5402588054025894540258DB
:105540003F960016405902583F8200104009024021
:1055500080B487B000AFF8600B467A60FB7200231E
:10556000FB75FB68002B01D101230AE0FB7A002BBD
:1055700003D1FB687A685A6002E00123FB7500BF23
:10558000FB7D18461C37BD465DF8047B704780B430
:1055900083B000AF786039607B68002B01D10123B4
:1055A00003E07B683A681A60002318460C37BD4652
:1055B0005DF8047B7047000080B586B000AF78606E
:1055C0007B681B681B0C03F003033B617B681B6853
:1055D00003F01F03012202FA03F3FB60FDF76AF9EF
:1055E0000346032B05D13B691A010F4B13447B6122
:1055F00004E03B691A010D4B13447B617B691B6816
:10560000FA681340BB60BB68002B09D07B69FA685D
:105610001A607B685B68002B02D07B685B689847E8
:1056200000BF1837BD4680BD88000058C80000582C
:1056300080B489B000AF786039600023FB618E4B85
:105640007B619EE13B681A680121FB6901FA03F363
:1056500013403B613B69002B00F090813B685B6825
:1056600003F00303012B05D03B685B6803F00303E1
:10567000022B30D17B689B68BB61FB695B00032216
:1056800002FA03F3DB43BA691340BB613B68DA6893
:10569000FB695B0002FA03F3BA691343BB617B68E1
:1056A000BA699A607B685B68BB610122FB6902FA98
:1056B00003F3DB43BA691340BB613B685B681B09BA
:1056C00003F00102FB6902FA03F3BA691343BB61F9
:1056D0007B68BA695A603B685B6803F00303032B7D
:1056E00009D13B685B6803F00303032B1BD13B68C4
:1056F0009B68012B17D07B68DB68BB61FB695B0093
:10570000032202FA03F3DB43BA691340BB613B682F
:105710009A68FB695B0002FA03F3BA691343BB6141
:105720007B68BA69DA603B685B6803F00303022BAD
:1057300023D1FB69DA087B68083253F82230BB6159
:10574000FB6903F007039B000F2202FA03F3DB431C
:10575000BA691340BB613B681A69FB6903F0070330
:105760009B0002FA03F3BA691343BB61FB69DA08D1
:105770007B680832B96943F822107B681B68BB61FB
:10578000FB695B00032202FA03F3DB43BA691340AF
:10579000BB613B685B6803F00302FB695B0002FAD4
:1057A00003F3BA691343BB617B68BA691A603B684B
:1057B0005B6803F44033002B00F0E0802F4BD3F8FC
:1057C000F4302E4A43F00203C2F8F4302B4BD3F8E6
:1057D000F43003F00203FB60FB68294AFB699B0875
:1057E000023352F82330BB61FB6903F003039B00D3
:1057F0000F2202FA03F3DB43BA691340BB617B68F3
:10580000204A934252D07B681F4A934231D07B6832
:105810001E4A93422BD07B681D4A934225D07B6859
:105820001C4A93421FD07B681B4A934219D07B6865
:105830001A4A934213D07B68194A93420DD07B6871
:10584000184A934207D07B68174A934201D1092333
:105850002DE00A232BE0082329E0072327E0062375
:1058600025E0052323E0042321E003231FE0022396
:105870001DE001231BE000BF8000005800440258D7
:1058800000040058000002580004025800080258A2
:10589000000C025800100258001402580018025858
:1058A000001C025800200258002402580023FA6904
:1058B00002F0030292009340BA691343BB61384976
:1058C000FB699B080233BA6941F823204FF0B043CB
:1058D0001B68BB613B69DB43BA691340BB613B6832
:1058E0005B6803F48013002B03D0BA693B69134350
:1058F000BB614FF0B042BB6913604FF0B0435B68CF
:10590000BB613B69DB43BA691340BB613B685B68C1
:1059100003F40013002B03D0BA693B691343BB6146
:105920004FF0B042BB6953607B695B68BB613B6908
:10593000DB43BA691340BB613B685B6803F4003327
:10594000002B03D0BA693B691343BB617B69BA6919
:105950005A607B691B68BB613B69DB43BA691340D2
:10596000BB613B685B6803F48033002B03D0BA69EA
:105970003B691343BB617B69BA691A60FB690133F8
:10598000FB613B681A68FB6922FA03F3002B7FF482
:1059900059AE00BF00BF2437BD465DF8047B704799
:1059A0000004005880B483B000AF78600B467B8061
:1059B00013467B707B78002B03D07A887B689A61D2
:1059C00003E07B881A047B689A6100BF0C37BD46F0
:1059D0005DF8047B7047000080B483B000AF78604E
:1059E000084A7B68203352F82330074A934201D19A
:1059F000002300E0012318460C37BD465DF8047B08
:105A0000704700BF006402580003008080B483B078
:105A100000AF7860396006493B6843F440727B68A8
:105A200041F8232000BF0C37BD465DF8047B70476A
:105A30000064025880B584B000AF7860294BDB6801
:105A400003F00703062B0AD0264BDB6803F03F0365
:105A50007A689A4201D0012340E000233EE0214BC6
:105A6000DB6823F03F021F497B681343CB60FCF7E0
:105A7000F9FDF86009E0FCF7F5FD0246FB68D31A72
:105A8000B3F57A7F01D9012328E0164B5B6803F454
:105A90000053B3F5005FEED17B681E2B08D07B6806
:105AA0002E2B05D07B681D2B02D07B682D2B14D1AB
:105AB000FCF7D8FDF86009E0FCF7D4FD0246FB686E
:105AC000D31AB3F57A7F01D9012307E0054BDB68D0
:105AD00003F48033B3F5803FEED10023184610372E
