:020000040800F2
:100000000050002081090008F5080008FD080008DC
:10001000050900080D090008150900080000000086
:100020000000000000000000000000001D090008A2
:1000300029090008000000003509000841090008EE
:10004000C9090008C9090008C9090008C909000848
:10005000C9090008C9090008C9090008C909000838
:10006000C9090008C9090008C9090008C909000828
:10007000C9090008C9090008C90900084D09000894
:10008000C9090008C9090008C9090008C909000808
:10009000C9090008C9090008C9090008C9090008F8
:1000A000C9090008C9090008C9090008C9090008E8
:1000B000C9090008C9090008C9090008C9090008D8
:1000C000C9090008C9090008C9090008C9090008C8
:1000D000C909000861090008C9090008C909000820
:1000E000C9090008C9090008C90900080000000082
:1000F0000000000000000000000000000000000000
:0C01000000000000000000005FF808F1A3
:10010C0010B5054C237833B9044B13B10448AFF345
:10011C0000800123237010BD0C00002000000000A3
:10012C00DC2B000808B5034B1BB103490348AFF3A4
:10013C00008008BD0000000010000020DC2B00082F
:10014C0080B500AF00F03CFC00F032F800F0DEF8B7
:10015C0000F0BEF800F068F800F090F8104800F0DD
:10016C0023F94FF4006200210E4802F005FD4FF414
:10017C0000620C490C4801F019FE0B4BDB6B1B6841
:10018C001A68094BDB6B1B6822F004021A60074BE0
:10019C001B78DBB2012BFAD100F0E2F9F7E700BFD4
:1001AC00280000203410002074180020301000208B
:1001BC0080B590B000AF07F1180328220021184633
:1001CC0002F0DAFC3B1D00221A605A609A60DA6079
:1001DC001A610223BB610123BB621023FB62002363
:1001EC007B6307F11803184601F080F90346002BD6
:1001FC0001D000F089FA0F237B600023BB60002341
:10020C00FB604FF480633B6100237B613B1D00214D
:10021C00184601F0EDFB0346002B01D000F074FAF8
:10022C0000BF4037BD4680BD80B500AF114B124AB0
:10023C001A60104B4FF4E1325A600E4B00229A6058
:10024C000C4B0022DA600B4B00221A61094B0C227A
:10025C005A61084B00229A61064B0022DA6105486C
:10026C0001F054FD0346002B01D000F04DFA00BF05
:10027C0080BD00BF741800200038014080B500AF6D
:10028C00114B124A1A60104B4FF4E1325A600E4B6C
:10029C0000229A600C4B0022DA600B4B00221A6190
:1002AC00094B08225A61084B00229A61064B002226
:1002BC00DA61054801F02AFD0346002B01D000F05D
:1002CC0023FA00BF80BD00BFBC18002000440040D2
:1002DC0080B582B000AF0C4B5B690B4A43F0010355
:1002EC005361094B5B6903F001037B607B6800225F
:1002FC0000210F2000F09DFC0F2000F0B6FC00BF89
:10030C000837BD4680BD00BF0010024080B483B0EA
:10031C0000AF084B9B69074A43F004039361054BFC
:10032C009B6903F004037B607B6800BF0C37BD4600
:10033C0080BC70470010024080B483B000AF78607E
:10034C000B467B807B681B68064A934205D1064BA3
:10035C0001221A70054A7B88138000BF0C37BD46FA
:10036C0080BC704700380140301000202E10002057
:10037C0080B483B000AF7860034B01221A7000BFC9
:10038C000C37BD4680BC70473010002080B483B061
:10039C0000AF7860034B01221A7000BF0C37BD46CA
:1003AC0080BC70473010002080B483B000AF786000
:1003BC007B6803F5805300221A807B6803F5805319
:1003CC0000225A8000BF0C37BD4680BC704780B4F9
:1003DC0083B000AF78607B6803F580531A887B6824
:1003EC0003F580535B889A420AD37B6803F58053EC
:1003FC001A887B6803F580535B88D31A9BB20CE098
:10040C007B6803F580531A887B6803F580535B88FF
:10041C00D31A9BB203F580539BB218460C37BD46DA
:10042C0080BC704780B487B000AFF860B9601346E9
:10043C00FB800023FB8228E0FB6803F580531B88BC
:10044C0001335A42C3F30B03C2F30B0258BF53429E
:10045C00BB82FB6803F580535B88BA8A9A4210D042
:10046C00FB8ABA681344FA6802F58052128819782C
:10047C00FB689954FB6803F580531A46BB8A1380BA
:10048C0000E000BFFB8A0133FB82FA8AFB889A42A8
:10049C00D2D300BF00BF1C37BD4680BC704780B4B0
:1004AC0087B000AFF860B96011461A460B46FB8066
:1004BC001346BB800023FB820EE0FA88FB8A1344B0
:1004CC009BB2C3F30B02FB8AB9680B44F9688A5CD4
:1004DC001A70FB8A0133FB82FA8ABB889A42ECD3EE
:1004EC00FA88BB8813449BB2C3F30B039AB2FB6824
:1004FC0003F580535A8000BF1C37BD4680BC704743
:10050C0080B485B000AF78600023BB817B685B78DA
:10051C00FB72FB7A013B7A6813441B78BB72002395
:10052C00FB730AE0FB7B7A6813441B781A46BB8981
:10053C001344BB81FB7B0133FB73FA7BFB7A013BDE
:10054C009A42EFDBBB897B727A7ABB7A9A4201D1F1
:10055C00012300E0002318461437BD4680BC7047C9
:10056C0080B586B000AF00237B7500237B8200230F
:10057C003B825E4B00221A705D4B1B889AB25D4B1E
:10058C001B889A4211D95A4B1B889AB2594B1B881B
:10059C00D31A7B81574B1B881A46574B13447A89C5
:1005AC0019465648FFF73EFF1AE0524B1B88C3F51D
:1005BC000063FB814F4B1B881A464F4B1344FA893F
:1005CC0019464E48FFF72EFF494B1B88BB81BB8950
:1005DC00002B05D0BB891A4647494848FFF722FF34
:1005EC00434B1B889BB2B3F5006F03D1414B0022E8
:1005FC001A8004E03E4B1B889AB23E4B1A803F484F
:10060C00FFF7E5FE0346FB8235E03C4B03F58053D8
:10061C005B881A46394B9B5CFA2B18D1374B03F588
:10062C0080535B883B82354B03F580535B880133E9
:10063C005A42C3F30B03C2F30B0258BF53423B8124
:10064C003B892E4AD35C7B8201237B7516E02B4BB6
:10065C0003F580535B8801335A42C3F30B03C2F397
:10066C000B0258BF53429AB2244B03F580535A8065
:10067C00FB8A013BFB82FB8A092BC6D87B7D012BB5
:10068C0030D100237B757B8A092B02D97B8A1C2BEA
:10069C0011D91A4B03F580535B8801335A42C3F3CB
:1006AC000B03C2F30B0258BF53429AB2134B03F520
:1006BC0080535A8016E0FA8A7B8A9A4211D37B8A3D
:1006CC003A8A0F490D48FFF7EAFE0D48FFF718FF6D
:1006DC000346FB71FB79002B04D00A4B01221A70E4
:1006EC0000E000BF1837BD4680BD00BF30100020B1
:1006FC002E1000202C100020341000202800002088
:10070C00341800203110002080B400AF72B600BF46
:10071C0000BFFDE780B485B000AF154B9B69144A50
:10072C0043F001039361124B9B6903F00103BB601F
:10073C00BB680F4BDB690E4A43F08053D3610C4B03
:10074C00DB6903F080537B607B680A4B5B68FB6062
:10075C00FB6823F0E063FB60FB6843F08063FB60A5
:10076C00044AFB68536000BF1437BD4680BC704719
:10077C00001002400000014080B58AB000AF7860E4
:10078C0007F1180300221A605A609A60DA607B68DD
:10079C001B684F4A934261D14E4B9B694D4A43F4BF
:1007AC00804393614B4B9B6903F480437B617B6972
:1007BC00484B9B69474A43F004039361454B9B6943
:1007CC0003F004033B613B694FF40073BB610223EC
:1007DC00FB6103237B6207F1180319463E4800F0C6
:1007EC0001FD4FF48063BB610023FB6100233B627E
:1007FC0007F118031946384800F0F4FC374B384A17
:10080C001A60364B00225A60344B00229A60334BEC
:10081C008022DA60314B00221A61304B00225A617F
:10082C002E4B20229A612D4B4FF40052DA612B484B
:10083C0000F036FA0346002B01D0FFF765FF7B680A
:10084C00264ADA63254A7B68536200220021252060
:10085C0000F0EFF9252000F008FA34E07B681B6803
:10086C00204A93422FD11B4BDB691A4A43F40033C5
:10087C00D361184BDB6903F40033FB60FB68154B49
:10088C009B69144A43F004039361124B9B6903F078
:10089C000403BB60BB680423BB610223FB6103231D
:1008AC007B6207F1180319460B4800F09BFC0823E8
:1008BC00BB610023FB6100233B6207F1180319465F
:1008CC00054800F08FFC00BF2837BD4680BD00BF37
:1008DC0000380140001002400008014004190020BB
:1008EC00580002400044004080B400AF00BFFDE758
:1008FC0080B400AF00BFFDE780B400AF00BFFDE7E0
:10090C0080B400AF00BFFDE780B400AF00BFFDE7CF
:10091C0080B400AF00BFBD4680BC704780B400AF50
:10092C0000BFBD4680BC704780B400AF00BFBD4661
:10093C0080BC704780B500AF00F088F800BF80BD68
:10094C0080B500AF024800F019FB00BF80BD00BFAE
:10095C000419002080B500AF024801F081FA00BFF5
:10096C0080BD00BF7418002080B400AF00BFBD462E
:10097C0080BC7047FFF7F8FF0B480C490C4A00236A
:10098C0002E0D458C4500433C4188C42F9D3094A39
:10099C00094C002301E013600432A242FBD302F0A5
:1009AC00F3F8FFF7CDFB7047000000200C0000208F
:1009BC00282C00080C0000204C190020FEE7000039
:1009CC0080B500AF084B1B68074A43F01003136057
:1009DC00032000F023F90F2000F008F8FFF79AFE2F
:1009EC000023184680BD00BF0020024080B582B0B5
:1009FC0000AF7860124B1A68124B1B7819464FF4F3
:100A0C007A73B3FBF1F3B2FBF3F3184600F03BF946
:100A1C000346002B01D001230EE07B680F2B0AD874
:100A2C00002279684FF0FF3000F003F9064A7B682A
:100A3C001360002300E0012318460837BD4680BD33
:100A4C0000000020080000200400002080B400AF4B
:100A5C00054B1B781A46054B1B681344034A13605D
:100A6C0000BFBD4680BC704708000020481900201C
:100A7C0080B400AF024B1B681846BD4680BC704763
:100A8C004819002080B485B000AF78607B6803F013
:100A9C000703FB600C4BDB68BB60BA684FF6FF03C7
:100AAC001340BB60FB681A02BB68134343F0BF637F
:100ABC0043F40033BB60044ABB68D36000BF1437F7
:100ACC00BD4680BC704700BF00ED00E080B400AFB5
:100ADC00044BDB681B0A03F007031846BD4680BCB9
:100AEC00704700BF00ED00E080B483B000AF034658
:100AFC00FB7197F90730002B0BDBFB7903F01F021E
:100B0C00064997F907305B09012000FA02F241F817
:100B1C00232000BF0C37BD4680BC704700E100E0CD
:100B2C0080B483B000AF03463960FB7197F907308E
:100B3C00002B0ADB3B68DAB20C4997F9073012013B
:100B4C00D2B20B4483F800230AE03B68DAB20849BE
:100B5C00FB7903F00F03043B1201D2B20B441A765B
:100B6C0000BF0C37BD4680BC704700BF00E100E001
:100B7C0000ED00E080B489B000AFF860B9607A6035
:100B8C00FB6803F00703FB61FB69C3F10703042B4C
:100B9C0028BF0423BB61FB690433062B02D9FB6914
:100BAC00033B00E000237B614FF0FF32BB6902FA8C
:100BBC0003F3DA43BB681A407B699A404FF0FF316C
:100BCC007B6901FA03F3D9437B680B401343184646
:100BDC002437BD4680BC704780B582B000AF7860CA
:100BEC007B68013BB3F1807F01D301230FE00A4AFC
:100BFC007B68013B53600F214FF0FF30FFF790FFF4
:100C0C00054B00229A60044B07221A6000231846F9
:100C1C000837BD4680BD00BF10E000E080B582B053
:100C2C0000AF78607868FFF72DFF00BF0837BD462E
:100C3C0080BD80B586B000AF0346B9607A60FB73A7
:100C4C0000237B61FFF742FF78617A68B9687869A5
:100C5C00FFF790FF024697F90F3011461846FFF741
:100C6C005FFF00BF1837BD4680BD80B582B000AFB6
:100C7C000346FB7197F907301846FFF735FF00BFA5
:100C8C000837BD4680BD80B582B000AF786078680B
:100C9C00FFF7A2FF034618460837BD4680BD00008B
:100CAC0080B485B000AF78600023FB607B68002BBC
:100CBC0001D1012343E07B681B681A46224B134485
:100CCC00224AA2FB03231B099A007B681A647B68E7
:100CDC001F4ADA637B68022283F821207B681B6839
:100CEC001B68FB60FB6823F47F5323F03003FB602D
:100CFC007B685A687B689B681A437B68DB681A437D
:100D0C007B681B691A437B685B691A437B689B6928
:100D1C001A437B68DB691343FA681343FB607B68F7
:100D2C001B68FA681A607B6800229A637B68012250
:100D3C0083F821207B68002283F8202000231846AA
:100D4C001437BD4680BC7047F8FFFDBFCDCCCCCC72
:100D5C000000024080B586B000AFF860B9607A60E0
:100D6C003B600023FB75FB6893F82030012B01D10D
:100D7C0002234BE0FB68012283F82020FB6893F8E8
:100D8C002130DBB2012B3AD1FB68022283F82120FF
:100D9C00FB6800229A63FB681B681A68FB681B6877
:100DAC0022F001021A603B687A68B968F86800F0B2
:100DBC00EBF9FB68DB6A002B08D0FB681B681A6830
:100DCC00FB681B6842F00E021A600FE0FB681B68A0
:100DDC001A68FB681B6822F004021A60FB681B6827
:100DEC001A68FB681B6842F00A021A60FB681B68F1
:100DFC001A68FB681B6842F001021A6005E0FB6888
:100E0C00002283F820200223FB75FB7D184618373F
:100E1C00BD4680BD80B485B000AF78600023FB7305
:100E2C007B6893F82130DBB2022B08D07B6804225C
:100E3C009A637B68002283F82020012320E07B68E2
:100E4C001B681A687B681B6822F00E021A607B68AC
:100E5C001B681A687B681B6822F001021A607B68A9
:100E6C001A6C7B68DB6B012101FA02F25A607B6819
:100E7C00012283F821207B68002283F82020FB7B51
:100E8C0018461437BD4680BC7047000080B584B04E
:100E9C0000AF78600023FB737B6893F82130DBB2E2
:100EAC00022B05D07B6804229A630123FB7351E06B
:100EBC007B681B681A687B681B6822F00E021A603C
:100ECC007B681B681A687B681B6822F001021A6039
:100EDC007B681B68224A934229D07B681B68214A95
:100EEC00934222D07B681B681F4A93421AD07B68BE
:100EFC001B681E4A934212D07B681B681C4A9342A3
:100F0C000AD07B681B681B4A934202D14FF48013B2
:100F1C000EE04FF080730BE04FF4803308E04FF499
:100F2C00805305E04FF4807302E0102300E00123AE
:100F3C00114A53607B68012283F821207B680022D0
:100F4C0083F820207B685B6B002B03D07B685B6B8A
:100F5C0078689847FB7B18461037BD4680BD00BFAC
:100F6C00080002401C0002403000024044000240D5
:100F7C00580002406C0002400000024080B584B072
:100F8C0000AF78607B68DB6B1B68FB607B681B6861
:100F9C001B68BB607B681B6C04229A40FB68134087
:100FAC00002B4FD0BB6803F00403002B4AD07B68A6
:100FBC001B681B6803F02003002B07D17B681B68A0
:100FCC001A687B681B6822F004021A607B681B6835
:100FDC00664A934229D07B681B68654A934222D0AB
:100FEC007B681B68634A93421AD07B681B68624A11
:100FFC00934212D07B681B68604A93420AD07B688C
:10100C001B685F4A934202D14FF480030EE04FF00D
:10101C0080630BE04FF4802308E04FF4804305E03D
:10102C004FF4806302E0402300E00423554A5360F0
:10103C007B68DB6A002B00F094807B68DB6A786845
:10104C0098478EE07B681B6C02229A40FB68134029
:10105C00002B56D0BB6803F00203002B51D07B68E9
:10106C001B681B6803F02003002B0BD17B681B68EB
:10107C001A687B681B6822F00A021A607B680122DE
:10108C0083F821207B681B68384A934229D07B68FF
:10109C001B68374A934222D07B681B68354A9342BF
:1010AC001AD07B681B68344A934212D07B681B6849
:1010BC00324A93420AD07B681B68314A934202D170
:1010CC004FF400130EE04FF000730BE04FF40033BD
:1010DC0008E04FF4005305E04FF4007302E02023C6
:1010EC0000E00223274A53607B68002283F820200B
:1010FC007B689B6A002B34D07B689B6A7868984726
:10110C002FE07B681B6C08229A40FB681340002B75
:10111C0028D0BB6803F00803002B23D07B681B6826
:10112C001A687B681B6822F00E021A607B681A6CC6
:10113C007B68DB6B012101FA02F25A607B680122A9
:10114C009A637B68012283F821207B68002283F854
:10115C0020207B681B6B002B04D07B681B6B786892
:10116C00984700BF00BF1037BD4680BD0800024045
:10117C001C00024030000240440002405800024073
:10118C006C0002400000024080B485B000AFF860F3
:10119C00B9607A603B60FB681A6CFB68DB6B012101
:1011AC0001FA02F25A60FB681B683A685A60FB68E5
:1011BC005B68102B08D1FB681B687A689A60FB6827
:1011CC001B68BA68DA6007E0FB681B68BA689A604B
:1011DC00FB681B687A68DA6000BF1437BD4680BCB8
:1011EC007047000080B48BB000AF7860396000238A
:1011FC007B6200233B6269E101227B6A02FA03F302
:10120C00FB613B681B68FA691340BB61BA69FB69F7
:10121C009A4240F058813B685B689A4A93425ED090
:10122C00984A934275D8984A934258D0964A93421A
:10123C006FD8964A934252D0944A934269D8944AB2
:10124C0093424CD0924A934263D8924A934246D0EE
:10125C00904A93425DD8122B2AD8122B59D801A24E
:10126C0052F823F0EB120008C5120008D712000840
:10127C00191300081F1300081F1300081F13000880
:10128C001F1300081F1300081F1300081F1300086A
:10129C001F1300081F1300081F1300081F1300085A
:1012AC001F1300081F130008CD120008E1120008DC
:1012BC00794A934213D02CE03B68DB683B6229E00F
:1012CC003B68DB6804333B6224E03B68DB68083333
:1012DC003B621FE03B68DB680C333B621AE03B6807
:1012EC009B68002B02D104233B6213E03B689B6894
:1012FC00012B05D108233B627B68FA691A6109E06E
:10130C0008233B627B68FA695A6103E000233B6265
:10131C0000E000BFBB69FF2B01D87B6801E07B6854
:10132C0004337B61BB69FF2B02D87B6A9B0002E014
:10133C007B6A083B9B003B617B691A680F213B6908
:10134C0001FA03F3DB431A40396A3B6901FA03F3F0
:10135C001A437B691A603B685B6803F08053002B6F
:10136C0000F0B1804D4B9B694C4A43F001039361F3
:10137C004A4B9B6903F00103BB60BB68484A7B6A1C
:10138C009B08023352F82330FB607B6A03F00303A3
:10139C009B000F2202FA03F3DB43FA681340FB6055
:1013AC007B68404A934213D07B683F4A93420DD0EE
:1013BC007B683E4A934207D07B683D4A934201D1F9
:1013CC00032306E0042304E0022302E0012300E0EF
:1013DC0000237A6A02F0030292009340FA681343E6
:1013EC00FB602F497B6A9B080233FA6841F8232083
:1013FC003B685B6803F48013002B06D02D4B9A6876
:10140C002C49BB6913438B6006E02A4B9A68BB6975
:10141C00DB43284913408B603B685B6803F4001383
:10142C00002B06D0234BDA682249BB691343CB60EF
:10143C0006E0204BDA68BB69DB431E491340CB60E6
:10144C003B685B6803F40033002B06D0194B5A68D9
:10145C001849BB6913434B6006E0164B5A68BB69CD
:10146C00DB43144913404B603B685B6803F48033E7
:10147C00002B21D00F4B1A680E49BB6913430B602C
:10148C0021E000BF000032100000311000002210DB
:10149C00000021100000121000001110001002407A
:1014AC000000014000080140000C01400010014008
:1014BC0000140140000401400B4B1A68BB69DB436C
:1014CC00094913400B607B6A01337B623B681A68E5
:1014DC007B6A22FA03F3002B7FF48EAE00BF00BFB1
:1014EC002C37BD4680BC70470004014080B586B0E7
:1014FC0000AF78607B68002B01D1012372E27B681E
:10150C001B6803F00103002B00F08780924B5B6893
:10151C0003F00C03042B0CD08F4B5B6803F00C0313
:10152C00082B12D18C4B5B6803F48033B3F5803FEE
:10153C000BD1894B1B6803F40033002B6CD07B68F8
:10154C005B68002B68D101234CE27B685B68B3F5C8
:10155C00803F06D1804B1B687F4A43F48033136075
:10156C002EE07B685B68002B0CD17B4B1B687A4AA6
:10157C0023F480331360784B1B68774A23F4802361
:10158C0013601DE07B685B68B3F5A02F0CD1724B28
:10159C001B68714A43F4802313606F4B1B686E4ABF
:1015AC0043F4803313600BE06B4B1B686A4A23F4E3
:1015BC0080331360684B1B68674A23F480231360E5
:1015CC007B685B68002B13D0FFF752FA386108E098
:1015DC00FFF74EFA02463B69D31A642B01D9032359
:1015EC0000E25D4B1B6803F40033002BF0D014E0D9
:1015FC00FFF73EFA386108E0FFF73AFA02463B691A
:10160C00D31A642B01D90323ECE1534B1B6803F46D
:10161C000033002BF0D100E000BF7B681B6803F0A7
:10162C000203002B63D04C4B5B6803F00C03002BC4
:10163C000BD0494B5B6803F00C03082B1CD1464BB9
:10164C005B6803F48033002B16D1434B1B6803F00B
:10165C000203002B05D07B681B69012B01D00123F1
:10166C00C0E13D4B1B6823F0F8027B685B69DB0033
:10167C00394913430B603AE07B681B69002B20D07F
:10168C00364B01221A60FFF7F3F9386108E0FFF7D7
:10169C00EFF902463B69D31A022B01D90323A1E1CE
:1016AC002D4B1B6803F00203002BF0D02A4B1B6858
:1016BC0023F0F8027B685B69DB00274913430B605E
:1016CC0015E0264B00221A60FFF7D2F9386108E0CA
:1016DC00FFF7CEF902463B69D31A022B01D903233B
:1016EC0080E11D4B1B6803F00203002BF0D17B68DB
:1016FC001B6803F00803002B3AD07B689B69002B16
:10170C0019D0174B01221A60FFF7B2F9386108E0C3
:10171C00FFF7AEF902463B69D31A022B01D903231A
:10172C0060E10D4B5B6A03F00203002BF0D001204B
:10173C0000F0CEFA1CE00A4B00221A60FFF798F971
:10174C0038610FE0FFF794F902463B69D31A022B7C
:10175C0008D9032346E100BF0010024000004242BA
:10176C0080044242924B5B6A03F00203002BE9D1E6
:10177C007B681B6803F00403002B00F0A680002399
:10178C00FB758B4BDB6903F08053002B0DD1884B21
:10179C00DB69874A43F08053D361854BDB6903F0E7
:1017AC008053BB60BB680123FB75824B1B6803F441
:1017BC008073002B18D17F4B1B687E4A43F48073D7
:1017CC001360FFF755F9386108E0FFF751F902464D
:1017DC003B69D31A642B01D9032303E1754B1B68B6
:1017EC0003F48073002BF0D07B68DB68012B06D1EF
:1017FC006F4B1B6A6E4A43F0010313622DE07B684A
:10180C00DB68002B0CD16A4B1B6A694A23F001037D
:10181C001362674B1B6A664A23F0040313621CE0D5
:10182C007B68DB68052B0CD1614B1B6A604A43F06B
:10183C00040313625E4B1B6A5D4A43F0010313629F
:10184C000BE05B4B1B6A5A4A23F001031362584BA3
:10185C001B6A574A23F0040313627B68DB68002B76
:10186C0015D0FFF705F938610AE0FFF701F90246D8
:10187C003B69D31A41F28832934201D90323B1E078
:10188C004B4B1B6A03F00203002BEED014E0FFF766
:10189C00EFF838610AE0FFF7EBF802463B69D31A20
:1018AC0041F28832934201D903239BE0404B1B6ADF
:1018BC0003F00203002BEED1FB7D012B05D13C4B39
:1018CC00DB693B4A23F08053D3617B68DB69002BD7
:1018DC0000F08780364B5B6803F00C03082B61D05B
:1018EC007B68DB69022B46D1334B00221A60FFF771
:1018FC00BFF8386108E0FFF7BBF802463B69D31A22
:10190C00022B01D903236DE0294B1B6803F00073F4
:10191C00002BF0D17B681B6AB3F5803F08D1244BB8
:10192C005B6823F400327B689B68214913434B604E
:10193C001F4B5B6823F474127B68196A7B685B6AC3
:10194C000B431B4913434B601B4B01221A60FFF7DF
:10195C008FF8386108E0FFF78BF802463B69D31A21
:10196C00022B01D903233DE0114B1B6803F00073DC
:10197C00002BF0D035E0104B00221A60FFF778F8FE
:10198C00386108E0FFF774F802463B69D31A022B62
:10199C0001D9032326E0064B1B6803F00073002BD0
:1019AC00F0D11EE07B68DB69012B07D1012319E024
:1019BC000010024000700040600042420B4B5B681C
:1019CC00FB60FB6803F480327B681B6A9A4206D189
:1019DC00FB6803F470127B685B6A9A4201D00123A6
:1019EC0000E0002318461837BD4680BD00100240A9
:1019FC0080B584B000AF786039607B68002B01D172
:101A0C000123D0E06A4B1B6803F007033A689A4243
:101A1C0010D9674B1B6823F0070265493B681343D9
:101A2C000B60634B1B6803F007033A689A4201D0C2
:101A3C000123B8E07B681B6803F00203002B20D065
:101A4C007B681B6803F00403002B05D0594B5B68C3
:101A5C00584A43F4E06353607B681B6803F0080347
:101A6C00002B05D0534B5B68524A43F460535360D0
:101A7C00504B5B6823F0F0027B689B684D49134325
:101A8C004B607B681B6803F00103002B40D07B6824
:101A9C005B68012B07D1474B1B6803F40033002B09
:101AAC0015D101237FE07B685B68022B07D1414B8A
:101ABC001B6803F00073002B09D1012373E03D4B2D
:101ACC001B6803F00203002B01D101236BE0394B9F
:101ADC005B6823F003027B685B68364913434B60F9
:101AEC00FEF7C6FFF8600AE0FEF7C2FF0246FB688D
:101AFC00D31A41F28832934201D9032353E02D4B80
:101B0C005B6803F00C027B685B689B009A42EBD12C
:101B1C00274B1B6803F007033A689A4210D2244BF8
:101B2C001B6823F0070222493B6813430B60204BD0
:101B3C001B6803F007033A689A4201D0012332E094
:101B4C007B681B6803F00403002B08D0194B5B68FF
:101B5C0023F4E0627B68DB68164913434B607B68B7
:101B6C001B6803F00803002B09D0124B5B6823F4AD
:101B7C0060527B681B69DB000E4913434B6000F01D
:101B8C0021F802460B4B5B681B0903F00F030A4953
:101B9C00CB5C22FA03F3094A1360094B1B68184605
:101BAC00FEF724FF002318461037BD4680BD00BF4A
:101BBC000020024000100240F42B0008000000201E
:101BCC000400002080B487B000AF0023FB6000232A
:101BDC00BB6000237B6100237B6000233B611E4BB9
:101BEC005B68FB60FB6803F00C03042B02D0082B32
:101BFC0003D027E0194B3B6127E0FB689B0C03F0FB
:101C0C000F03174AD35C7B60FB6803F48033002B13
:101C1C0010D0114B5B685B0C03F00103114AD35CD1
:101C2C00BB607B680D4A03FB02F2BB68B2FBF3F3AB
:101C3C007B6104E07B680C4A02FB03F37B617B69EC
:101C4C003B6102E0054B3B6100BF3B6918461C370A
:101C5C00BD4680BC704700BF0010024000127A00E5
:101C6C000C2C00081C2C000800093D0080B400AFAF
:101C7C00024B1B681846BD4680BC70470000002014
:101C8C0080B500AFFFF7F2FF0246054B5B681B0AFD
:101C9C0003F007030349CB5C22FA03F3184680BD1B
:101CAC0000100240042C000880B500AFFFF7DEFFE7
:101CBC000246054B5B68DB0A03F007030349CB5C68
:101CCC0022FA03F3184680BD00100240042C0008D1
:101CDC0080B485B000AF78600A4B1B680A4AA2FB3F
:101CEC0003235B0A7A6802FB03F3FB6000BFFB680B
:101CFC005A1EFA60002BF9D100BF00BF1437BD4645
:101D0C0080BC704700000020D34D621080B582B0BB
:101D1C0000AF78607B68002B01D1012342E07B6827
:101D2C0093F84130DBB2002B06D17B68002283F89C
:101D3C0040207868FEF720FD7B68242283F8412040
:101D4C007B681B68DA687B681B6822F40052DA60D7
:101D5C00786800F083FE7B681B681A697B681B68D7
:101D6C0022F490421A617B681B685A697B681B6875
:101D7C0022F02A025A617B681B68DA687B681B6850
:101D8C0042F40052DA607B6800225A647B6820229D
:101D9C0083F841207B68202283F842207B68002254
:101DAC005A63002318460837BD4680BD80B58CB0F9
:101DBC0000AFF860B9601346FB80FB6893F84230C3
:101DCC00DBB2202B46D1BB68002B02D0FB88002B4A
:101DDC0001D101233FE0FB6801221A63FB6800225A
:101DEC005A63FB881A46B968F86800F0DBFB0346B7
:101DFC0087F82F30FB681B6B012B25D100233B612F
:101E0C00FB681B681B683B61FB681B685B683B617C
:101E1C003B69FB681B680C33BB61BB6953E8003F33
:101E2C007B617B6943F01003BB62FB681B680C335E
:101E3C00BA6A7A623B62396A7A6A41E80023FB61CA
:101E4C00FB69002BE5D102E0012387F82F3097F8CE
:101E5C002F3000E0022318463037BD4680BD00000D
:101E6C0080B5BAB000AF78607B681B681B68C7F898
:101E7C00E4307B681B68DB68C7F8E0307B681B6864
:101E8C005B69C7F8DC300023C7F8D8300023C7F8EB
:101E9C00D430D7F8E43003F00F03C7F8D830D7F8B4
:101EAC00D830002B0FD1D7F8E43003F02003002BEF
:101EBC0009D0D7F8E03003F02003002B03D078686A
:101ECC0000F00EFD5BE2D7F8D830002B00F0DE807E
:101EDC00D7F8DC3003F00103002B06D1D7F8E03043
:101EEC0003F49073002B00F0D180D7F8E43003F0AA
:101EFC000103002B0BD0D7F8E03003F48073002BD8
:101F0C0005D07B685B6C43F001027B685A64D7F8A0
:101F1C00E43003F00403002B0BD0D7F8DC3003F0D3
:101F2C000103002B05D07B685B6C43F002027B68DD
:101F3C005A64D7F8E43003F00203002B0BD0D7F827
:101F4C00DC3003F00103002B05D07B685B6C43F0A5
:101F5C0004027B685A64D7F8E43003F00803002BC2
:101F6C0011D0D7F8E03003F02003002B05D1D7F8BF
:101F7C00DC3003F00103002B05D07B685B6C43F075
:101F8C0008027B685A647B685B6C002B00F0F28162
:101F9C00D7F8E43003F02003002B08D0D7F8E0305A
:101FAC0003F02003002B02D0786800F099FC7B68CA
:101FBC001B685B6903F04003002B14BF0123002353
:101FCC00DBB2C7F8D4307B685B6C03F00803002BE2
:101FDC0003D1D7F8D430002B4FD0786800F0A3FB96
:101FEC007B681B685B6903F04003002B41D07B6866
:101FFC001B681433C7F89C30D7F89C3053E8003F6B
:10200C00C7F89830D7F8983023F04003C7F8D03091
:10201C007B681B681433D7F8D020C7F8A820C7F802
:10202C00A430D7F8A410D7F8A82041E80023C7F8AB
:10203C00A030D7F8A030002BD9D17B68DB6B002BFC
:10204C0013D07B68DB6B7E4A5A637B68DB6B18466C
:10205C00FEF71CFF0346002B16D07B68DB6B5B6B1B
:10206C007A68D26B104698470EE0786800F093F9C6
:10207C000AE0786800F08FF906E0786800F08BF9D8
:10208C007B6800225A6475E100BF73E17B681B6BAF
:10209C00012B40F04F81D7F8E43003F01003002BF4
:1020AC0000F04881D7F8E03003F01003002B00F06B
:1020BC0041810023BB607B681B681B68BB607B682D
:1020CC001B685B68BB60BB687B681B685B6903F063
:1020DC004003002B00F0B6807B68DB6B1B685B68F1
:1020EC00A7F8BE30B7F8BE30002B00F045817B68F6
:1020FC009B8DB7F8BE209A4280F03E817B68B7F882
:10210C00BE20DA857B68DB6B9B69202B00F0888016
:10211C007B681B680C33C7F88830D7F8883053E8D5
:10212C00003FC7F88430D7F8843023F48073C7F8A5
:10213C00B8307B681B680C33D7F8B820C7F89420EC
:10214C00C7F89030D7F89010D7F8942041E80023C6
:10215C00C7F88C30D7F88C30002BD9D17B681B6832
:10216C0014337B677B6F53E8003F3B673B6F23F077
:10217C000103C7F8B4307B681B681433D7F8B4205C
:10218C00C7F88020FB67F96FD7F8802041E800235F
:10219C00BB67BB6F002BE1D17B681B6814333B66BC
:1021AC003B6E53E8003FFB65FB6D23F04003C7F823
:1021BC00B0307B681B681433D7F8B020FA66BB6666
:1021CC00B96EFA6E41E800237B667B6E002BE3D17F
:1021DC007B68202283F842207B6800221A637B688C
:1021EC001B680C33FB64FB6C53E8003FBB64BB6C9B
:1021FC0023F01003C7F8AC307B681B680C33D7F89E
:10220C00AC20BA657B65796DBA6D41E800233B65FE
:10221C003B6D002BE3D17B68DB6B1846FEF7FAFDB8
:10222C007B6802225A637B689A8D7B68DB8D9BB23C
:10223C00D31A9BB219467868FEF77EF89CE000BF73
:10224C00F72700087B689A8D7B68DB8D9BB2D31ACD
:10225C00A7F8CE307B68DB8D9BB2002B00F08E8014
:10226C00B7F8CE30002B00F089807B681B680C33EC
:10227C00BB63BB6B53E8003F7B637B6B23F49073B6
:10228C00C7F8C8307B681B680C33D7F8C8207A6451
:10229C003B64396C7A6C41E80023FB63FB6B002BCD
:1022AC00E3D17B681B6814337B627B6A53E8003F85
:1022BC003B623B6A23F00103C7F8C4307B681B68A0
:1022CC001433D7F8C4203A63FB62F96A3A6B41E8DD
:1022DC000023BB62BB6A002BE3D17B68202283F80E
:1022EC0042207B6800221A637B681B680C333B61BD
:1022FC003B6953E8003FFB60FB6823F01003C7F811
:10230C00C0307B681B680C33D7F8C020FA61BB6106
:10231C00B969FA6941E800237B617B69002BE3D141
:10232C007B6802225A63B7F8CE3019467868FEF7FC
:10233C0003F823E0D7F8E43003F08003002B09D036
:10234C00D7F8E03003F08003002B03D0786800F05E
:10235C0060FA14E0D7F8E43003F04003002B0ED001
:10236C00D7F8E03003F04003002B08D0786800F079
:10237C009FFA04E000BF02E000BF00E000BFE837B6
:10238C00BD4680BD80B483B000AF786000BF0C3711
:10239C00BD4680BC704780B483B000AF786000BF8E
:1023AC000C37BD4680BC704780B59CB000AF7860E0
:1023BC007B685B6AFB667B681B681B6803F0200309
:1023CC00002B72D1FB6E0022DA85FB6E1B680C337E
:1023DC00FB64FB6C53E8003FBB64BB6C23F4807361
:1023EC00BB66FB6E1B680C33BA6EBA657B65796D88
:1023FC00BA6D41E800233B653B6D002BE5D1FB6ECC
:10240C001B681433BB63BB6B53E8003F7B637B6B74
:10241C0023F001037B66FB6E1B6814337A6E7A64BF
:10242C003B64396C7A6C41E80023FB63FB6B002B3B
:10243C00E5D1FB6E1B6814337B627B6A53E8003F6B
:10244C003B623B6A23F040033B66FB6E1B68143314
:10245C003A6E3A63FB62F96A3A6B41E80023BB625D
:10246C00BB6A002BE5D1FB6E202283F84220FB6E69
:10247C001B6B012B19D1FB6E1B680C333B613B6949
:10248C0053E8003FFB60FB6823F01003FB65FB6E19
:10249C001B680C33FA6DFA61BB61B969FA6941E8E2
:1024AC0000237B617B69002BE5D1FB6E00225A6314
:1024BC00FB6E1B6B012B06D1FB6E9B8D1946F86EC8
:1024CC00FDF73AFF02E0F86EFDF760FF00BF7037D2
:1024DC00BD4680BD80B584B000AF78607B685B6A18
:1024EC00FB60FB6801225A63FB681B6B012B08D154
:1024FC00FB689B8D5B089BB21946F868FDF71CFFC7
:10250C0002E0F868FDF734FF00BF1037BD4680BD10
:10251C0080B584B000AF78600023FB607B685B6A99
:10252C00BB60BB681B685B6903F08003002B14BFA6
:10253C0001230023DBB2FB60BB6893F84130DBB2B4
:10254C00212B08D1FB68002B05D0BB680022DA8454
:10255C00B86800F0C1F8BB681B685B6903F0400306
:10256C00002B14BF01230023DBB2FB60BB6893F884
:10257C004230DBB2222B08D1FB68002B05D0BB68A4
:10258C000022DA85B86800F0CEF8BB685B6C43F0CB
:10259C001002BB685A64B868FFF7FDFE00BF103725
:1025AC00BD4680BD80B598B000AFF860B9601346E9
:1025BC00FB80BA68FB689A62FB68FA889A85FB68AC
:1025CC0000225A64FB68222283F84220FB68DB6BF2
:1025DC003E4A9A62FB68DB6B3D4ADA62FB68DB6B56
:1025EC003C4A1A63FB68DB6B00225A6307F1080351
:1025FC00FB65FB68D86BFB681B6804331946FB6DE5
:10260C001A68FB88FEF7A6FB00233B61FB681B687E
:10261C001B683B61FB681B685B683B613B69FB6843
:10262C001B69002B19D0FB681B680C333B643B6C9B
:10263C0053E8003FFB63FB6B43F48073BB65FB68A3
:10264C001B680C33BA6DFA64BB64B96CFA6C41E864
:10265C0000237B647B6C002BE5D1FB681B68143377
:10266C00FB62FB6A53E8003FBB62BB6A43F00103A9
:10267C007B65FB681B6814337A6DBA637B63796B7B
:10268C00BA6B41E800233B633B6B002BE5D1FB6845
:10269C001B681433BB61BB6953E8003F7B617B69EA
:1026AC0043F040033B65FB681B6814333A6D7A6258
:1026BC003B62396A7A6A41E80023FB61FB69002BB3
:1026CC00E5D1002318466037BD4680BDB523000810
:1026DC00E12400081D25000880B489B000AF7860A3
:1026EC007B681B680C33FB60FB6853E8003FBB60E6
:1026FC00BB6823F0C003FB617B681B680C33FA6971
:10270C00BA617B617969BA6941E800233B613B6935
:10271C00002BE5D17B68202283F8412000BF2437B1
:10272C00BD4680BC704780B495B000AF78607B68C4
:10273C001B680C337B637B6B53E8003F3B633B6B49
:10274C0023F49073FB647B681B680C33FA6C3A645B
:10275C00FB63F96B3A6C41E80023BB63BB6B002B4A
:10276C00E5D17B681B6814333B623B6A53E8003F3E
:10277C00FB61FB6923F00103BB647B681B681433AA
:10278C00BA6CFA62BB62B96AFA6A41E800237B62EE
:10279C007B6A002BE5D17B681B6B012B19D17B6805
:1027AC001B680C33FB60FB6853E8003FBB60BB68E5
:1027BC0023F010037B647B681B680C337A6CBA6162
:1027CC007B617969BA6941E800233B613B69002B65
:1027DC00E5D17B68202283F842207B6800221A63B3
:1027EC0000BF5437BD4680BC704780B584B000AF85
:1027FC0078607B685B6AFB60FB680022DA85FB68AB
:10280C000022DA84F868FFF7C6FD00BF1037BD461A
:10281C0080BD80B485B000AF78607B6893F84130A0
:10282C00DBB2212B3ED17B689B68B3F5805F14D162
:10283C007B681B69002B10D17B681B6AFB60FB68F3
:10284C001B881A467B681B68C2F308025A607B68B7
:10285C001B6A9A1C7B681A6208E07B681B6A591C0D
:10286C007A6811621A787B681B685A607B68DB8C0B
:10287C009BB2013B9BB27A681946D184002B0FD1D5
:10288C007B681B68DA687B681B6822F08002DA6060
:10289C007B681B68DA687B681B6842F04002DA6070
:1028AC00002300E0022318461437BD4680BC704755
:1028BC0080B582B000AF78607B681B68DA687B6893
:1028CC001B6822F04002DA607B68202283F84120EA
:1028DC007868FFF757FD002318460837BD4680BDC2
:1028EC0080B58CB000AF78607B6893F84230DBB277
:1028FC00222B40F0AE807B689B68B3F5805F17D1CC
:10290C007B681B69002B13D10023FB627B689B6ADD
:10291C00BB627B681B685B689BB2C3F308039AB20B
:10292C00BB6A1A807B689B6A9A1C7B689A6226E059
:10293C007B689B6AFB620023BB627B689B68B3F578
:10294C00805F07D07B689B68002B0AD17B681B6972
:10295C00002B06D17B681B685B68DAB2FB6A1A70C5
:10296C0008E07B681B685B68DBB203F07F03DAB2BC
:10297C00FB6A1A707B689B6A5A1C7B689A627B683C
:10298C00DB8D9BB2013B9BB27A681946D185002B3B
:10299C005DD17B681B68DA687B681B6822F02002BB
:1029AC00DA607B681B68DA687B681B6822F48072CB
:1029BC00DA607B681B685A697B681B6822F001022D
:1029CC005A617B68202283F842207B6800225A637C
:1029DC007B681B6B012B35D17B6800221A637B68EB
:1029EC001B680C337B617B6953E8003F3B613B699F
:1029FC0023F010037B627B681B680C337A6A3A62A3
:102A0C00FB61F9693A6A41E80023BB61BB69002BA1
:102A1C00E5D17B681B681B6803F01003102B0AD1EF
:102A2C000023FB607B681B681B68FB607B681B6872
:102A3C005B68FB60FB687B689B8D19467868FDF7CB
:102A4C007BFC02E07868FDF7A1FC002302E0002388
:102A5C0000E0022318463037BD4680BD80B584B0F7
:102A6C0000AF78607B681B681B6923F440517B685E
:102A7C00DA687B681B680A431A617B689A687B6812
:102A8C001B691A437B685B691343BB607B681B68DB
:102A9C00DB6823F4B05323F00C037A681268B9682E
:102AAC000B43D3607B681B685B6923F440717B68C4
:102ABC009A697B681B680A435A617B681B682C4ABD
:102ACC00934203D1FFF7F0F8F86002E0FFF7D8F873
:102ADC00F860FA6813469B0013449A001A447B680A
:102AEC005B689B00B2FBF3F3224AA2FB03235B0956
:102AFC001901FA6813469B0013449A001A447B6828
:102B0C005B689B00B2FBF3F21A4BA3FB02035B095D
:102B1C00642000FB03F3D31A1B013233154AA2FBCA
:102B2C0003235B0903F0F0031944FA6813469B0076
:102B3C0013449A001A447B685B689B00B2FBF3F267
:102B4C000C4BA3FB02035B09642000FB03F3D31AB9
:102B5C001B013233074AA2FB03235B0903F00F026C
:102B6C007B681B680A449A6000BF1037BD4680BD65
:102B7C00003801401F85EB5103460244934200D1BB
:102B8C00704703F8011BF9E770B500260C4D0D4C8E
:102B9C00641BA410A64209D100F01AF800260A4DB5
:102BAC000A4C641BA410A64205D170BD55F8043B19
:102BBC0098470136EEE755F8043B98470136F2E7A3
:102BCC00202C0008202C0008202C0008242C0008A5
:102BDC00F8B500BFF8BC08BC9E467047F8B500BFFE
:082BEC00F8BC08BC9E467047CE
:102BF40000000000000000000102030406070809A9
:102C0400000000000102030402030405060708098A
:0C2C14000A0B0C0D0E0F10100102000046
:042C20003101000876
:042C24000D01000896
:0C2C280000127A00100000000100000003
:040000050800098165
:00000001FF
